:020000040800F2
:1000000038070020D5010008BF060008B706000821
:10001000BB06000881050008D71A00080000000090
:100020000000000000000000000000005D08000863
:100030008505000800000000450700087109000858
:10004000EF010008EF010008EF010008EF010008D0
:10005000EF010008EF010008EF010008EF010008C0
:10006000EF010008EF010008EF010008EF010008B0
:10007000EF010008EF010008EF010008EF010008A0
:10008000EF010008EF010008EF010008EF01000890
:10009000EF010008EF010008EF010008EF01000880
:1000A000EF010008EF010008EF010008EF01000870
:1000B000EF010008EF010008150C0008EF0100082F
:1000C000EF010008EF010008EF010008EF01000850
:1000D000EF010008EF010008EF01000825180008F3
:1000E000EF010008EF010008EF010008EF01000830
:1000F000EF010008EF010008EF010008EF01000820
:10010000EF010008EF010008550F0008EF0100089B
:10011000EF010008EF0100088D120008EF01000850
:10012000EF010008EF010008EF010008EF010008EF
:1001300000F002F800F03FF80AA090E8000C8244BA
:100140008344AAF10107DA4501D100F034F8AFF297
:10015000090EBAE80F0013F0010F18BFFB1A43F0A5
:100160000103184794320000B4320000103A24BF53
:1001700078C878C1FAD8520724BF30C830C144BF0C
:1001800004680C607047000000230024002500264E
:10019000103A28BF78C1FBD8520728BF30C148BFEA
:1001A0000B607047642900F06B80002070471FB51A
:1001B0001FBD10B510BD00F0B5F91146FFF7F7FFF0
:1001C00002F0EAF800F0D3F903B4FFF7F2FF03BC42
:1001D00001F08AFC0948804709480047FEE7FEE72E
:1001E000FEE7FEE7FEE7FEE7FEE7FEE7FEE7FEE7E7
:1001F00004480549054A064B704700007509000888
:1002000031010008380100203807002038030020A1
:1002100038030020704700000FB4044910B503AA4A
:10022000029800F04DF910BC5DF814FB08000020A6
:1002300070B5044685690068C10601D5302600E026
:100240002026C00707D070BDD4E901213046904771
:10025000206A401C20626D1EF6D570BD70B5044644
:1002600085690078C00707D170BDD4E9012120203D
:100270009047206A401C20626D1EF6D570BD0000BC
:100280002DE9F0410646002410687529314616A56F
:1002900010D0AFF30080002802DA404213A507E037
:1002A00031688A0701D512A502E0490704D511A5D6
:1002B000012401E0AFF3008000210A2206F12407A7
:1002C00009E0B0FBF2FCB0FBF2F302FB1C003030A3
:1002D00078541846491C0028F3D123462A46304654
:1002E000BDE8F04100F093B8000000002D000000D0
:1002F0002B000000200000002DE9F0474FF0000A1D
:1003000089460446C0F820A02046E16888470028B6
:1003100076D0252806D0D4E901219047206A401CD8
:100320002062F1E7E168204600258847C4F81CA058
:1003300006460027C4F818A02A2E09D0304601F03E
:10034000CCFB38B304EB8708303EC8F8186019E0DE
:1003500059F8041B204604EB87029161E168884745
:10036000012F064618D1E069002820DA25F0200583
:100370001DE0D8F8180000EB800006EB4000303894
:10038000C8F818002046E1688847064601F0A5FB3A
:100390000028EED1012F0AD02E2E08D12046E16888
:1003A00088477F1C0646022F45F02005C4DBA06964
:1003B000002803DA404245F00105A061E80701D0BA
:1003C00025F01005B6B1A6F14100192802D8203653
:1003D00045F400654A463146204625604D46FFF704
:1003E000E1FE58B1012806D0ED1D25F0070000F10F
:1003F000080989E704E005F1040985E730468AE742
:10040000206ABDE8F08770477047704770472DE954
:10041000F0470D4699469246044600F124080168CB
:10042000880604D5E06921F01001216000E0012078
:10043000A84201DD471B00E00027A1697A1902EB01
:100440000900081AA0612078C00602D42046FFF7F0
:10045000EFFE002608E0D4E901211AF806009047D3
:10046000206A401C761C20624E45F4DB2078C006D2
:100470000AD52046FFF7DCFE06E0D4E90121302052
:100480009047206A401C2062381EA7F10107F4DC67
:1004900007E0D4E9012118F805009047206A401CC4
:1004A0002062281EA5F10105F3DC2046FFF7D6FEE9
:1004B0002078000602D50220BDE8F0870120FBE786
:1004C000074B70B50D467B4400F011F804462846F2
:1004D00000F020F810B14FF0FF3070BD204670BD25
:1004E000CB1B000001694A1C02610878704700B507
:1004F0008FB0CDE901310021059105497944CDE95D
:10050000031011466846FFF7F7FE0FB000BD00006C
:10051000E5FFFFFF007B00F0800070470048704758
:10052000D80000207546FFF7F9FFAE460500694682
:10053000534620F00700854618B020B5FFF758FE57
:10054000BDE820404FF000064FF000074FF00008D4
:100550004FF0000B21F00701AC46ACE8C009ACE855
:10056000C009ACE8C009ACE8C0098D46704710B5B9
:100570000446AFF300802046BDE81040FFF724BEDC
:1005800000BFFEE770472DE9F04102460025002636
:10059000002000230024002791F803C00CF00F0571
:1005A00091F803C00CF0100CBCF1000F03D091F8CF
:1005B00002C04CEA050591F800C0BCF1000F31D033
:1005C000146800202BE04FF0010C0CFA00F3B1F896
:1005D00000C00CEA03069E4220D183004FF00F0CAE
:1005E0000CFA03F7BC4305FA03FC4CEA040491F847
:1005F00003C0BCF1280F06D14FF0010C0CFA00FC2F
:10060000C2F814C00AE091F803C0BCF1480F05D14C
:100610004FF0010C0CFA00FCC2F810C0401C082876
:10062000D1D31460B1F800C0BCF1FF0F34DD5468C1
:1006300000202EE000F1080C4FF0010808FA0CF33E
:10064000B1F800C00CEA03069E4221D183004FF0AE
:100650000F0C0CFA03F7BC4305FA03FC4CEA040444
:1006600091F803C0BCF1280F05D100F1080C08FA7D
:100670000CF8C2F8148091F803C0BCF1480F07D100
:1006800000F1080C4FF0010808FA0CF8C2F81080CD
:10069000401C0828CED35460BDE8F08102460020FB
:1006A00093680B400BB1012000E0002070474161CE
:1006B00070470161704700BFFEE700BFFEE770476B
:1006C00070B5002100230F22C47804B3154C2468B0
:1006D00004F4E064C4F5E064210AC1F10403CA40F3
:1006E000447804FA03F184781440214309010E4C44
:1006F0000678A155047804F01F050124AC40057864
:100700006D11AD0005F1E025C5F8004109E0047860
:1007100004F01F050124AC40044D0678761145F81D
:10072000264070BD0CED00E000E400E080E100E058
:1007300002490143024A1160704700000000FA05B7
:100740000CED00E07047000029B1064AD26902436F
:10075000044BDA6104E0034AD2698243014BDA6157
:10076000704700000010024029B1064A9269024316
:10077000044B9A6104E0034A92698243014B9A61F7
:10078000704700000010024030B500210022002414
:1007900000232D4D6D6805F00C0121B1042905D011
:1007A000082923D105E0294D056022E0274D056089
:1007B0001FE0254D6D6805F47012234D6D6805F43A
:1007C0008034022505EB92421CB9214D554305604A
:1007D0000BE01D4D6D6805F400351DB11C4D5543F2
:1007E000056002E0194D5543056002E0174D0560B4
:1007F00000BF00BF144D6D6805F0F0010909154DEB
:100800006B5C0568DD4045600F4D6D6805F4E06187
:10081000090A104D6B5C4568DD4085600A4D6D68C6
:1008200005F46051C90A0B4D6B5C4568DD40C5603D
:10083000054D6D6805F44041890B074D6B5CC5683B
:10084000B5FBF3F5056130BD0010024000127A00DF
:1008500000093D005600002066000020704710B5DA
:1008600000F002F810BD00000CB5002001900090CF
:100870003348006840F480303149086000BF304898
:10088000006800F4003000900198401C019000982E
:1008900018B90198B0F5A06FF1D12948006800F4AB
:1008A000003010B10120009001E00020009000987D
:1008B000012843D12348006840F010002149086016
:1008C0000846006820F0030008600846006840F011
:1008D000020008601A4840681949486008464068A4
:1008E00048600846406840F48060486008464068B8
:1008F00020F47C1048600846406840F4E8104860E6
:100900000846006840F08070086000BF0C4800682E
:1009100000F000700028F9D00948406820F003007A
:10092000074948600846406840F00200486000BF40
:100930000348406800F00C000828F9D10CBD000005
:100940000010024000200240042808D14FF0E021AE
:10095000096941F004014FF0E022116107E04FF016
:10096000E021096921F004014FF0E0221161704794
:100970007047000010B51348006840F001001149AD
:10098000086008464068104908400E49486008461B
:1009900000680E4908400B4908600846006820F4CA
:1009A000802008600846406820F4FE0048604FF44C
:1009B0001F008860FFF753FF4FF000600449086094
:1009C00010BD0000001002400000FFF8FFFFF6FE1F
:1009D00008ED00E0F0B50C46154600220021068C1B
:1009E0004FF6FE773E400684028B018C4FF60C7664
:1009F00032407E1C06EA03162E433243104EB042AC
:100A00000ED0104EB0420BD0B0F1804F08D00E4E39
:100A1000B04205D00D4EB04202D00D4EB04206D1CC
:100A20004FF6FD76314044F00106314305E04FF6C4
:100A3000F576314044F00106314302830184F0BD74
:100A4000002C014000340140000400400008004038
:100A5000000C0040F0B50C4615460022002100268F
:100A6000078C4FF6EF7C07EA0C070784028B018C9A
:100A70004FF6FF7707EA041640F6FF473A404FF675
:100A8000FF7707EA03373A434FF6FF7707EA052770
:100A90003A43114FB8420ED0104FB8420BD0B0F1CC
:100AA000804F08D00E4FB84205D00E4FB84202D04A
:100AB0000D4FB84206D14FF6DF77394046F01007A8
:100AC000394305E04FF65F77394044F0100739436A
:100AD00002830184F0BD0000002C0140003401407D
:100AE0000004004000080040000C0040F0B50C4637
:100AF0001546002200210026078C4FF6FF6C07EAFE
:100B00000C070784828B018C4FF6FF7707EA0426D7
:100B10004FF60C773A404FF6FF7707EA03172F435B
:100B20003A43114FB8420ED0104FB8420BD0B0F13B
:100B3000804F08D00E4FB84205D00E4FB84202D0B9
:100B40000D4FB84206D14FF6FF57394046F4807733
:100B5000394305E04FF2FF57394044F48077394379
:100B600082830184F0BD0000002C0140003401406C
:100B70000004004000080040000C0040F0B50C46A6
:100B80001546002200210026078C4EF6FF7C07EA5E
:100B90000C070784828B018C4FF6FF7707EA043637
:100BA00040F6FF473A404FF6FF7707EA05273A43FA
:100BB0004FF6FF7707EA03373A43114FB8420ED09A
:100BC000104FB8420BD0B0F1804F08D00E4FB84252
:100BD00005D00E4FB84202D00D4FB84206D14DF6A7
:100BE000FF77394046F48057394305E047F6FF5711
:100BF000394044F48057394382830184F0BD0000BA
:100C0000002C014000340140000400400008004076
:100C1000000C004010B50021BF4881710020BE4982
:100C200088700021BC48817381720221BB4800F0AA
:100C300082FB00283FD00221B84800F051FB01217F
:100C4000B54881730020B6490870B648007800F0B6
:100C5000800020B30021B14800F02AFCAF4800F02A
:100C60005DFBB14908804020AE490870AE4800885D
:100C7000AE490988884207DDAB480088AB4909883E
:100C8000401AA549888116E0A84800884FF6FF71F0
:100C9000081AA549098808449F4988810BE0022168
:100CA0009E4800F005FC80209E4908709B4800F09B
:100CB00035FB9E4908800421984800F03CFB002841
:100CC0003FD00421954800F00BFB01209249887029
:100CD0000020934948709648007800F0800020B3C7
:100CE0008E4800F01EFB9349088040209049087010
:100CF0009048008890490988884207DD8D4800881F
:100D00008D490988401A8449088009E08A4800888A
:100D10004FF6FF71081A8749098808447E49088000
:100D200000217E4800F028FC0BE0802080490870FC
:100D30007A4800F0F6FA804908800221774800F0EE
:100D40001BFC0821754800F0F6FA00283FD0082166
:100D5000724800F0C5FA01216F4881710020704986
:100D600088707648007800F0800020B36B4800F06F
:100D7000DBFA734908804020704908707048008889
:100D800070490988884207DD6D4800886D490988E7
:100D9000401A6149888009E06A4800884FF6FF716F
:100DA000081A6749098808445B49888000215B4824
:100DB00000F04CFC0BE0802060490870574800F0C0
:100DC000B3FA604908800221544800F03FFC10212A
:100DD000524800F0B0FA90B31021504800F080FA69
:100DE00001214D48817200204D49C8705648007855
:100DF00000F0800020B3494800F099FA5349088078
:100E0000402051490870514800885149098888425A
:100E100007DD4E4800884E490988401A3E4908813E
:100E200009E04B4800884FF6FF71081A47490988C6
:100E30000844394908810021384800F05BFC0BE088
:100E4000802041490870354800F071FA4049088017
:100E50000221324800F04EFC0121304800F06BFACC
:100E6000002857D001212D4800F03AFA2A48807B0B
:100E700020B129488089284988810CE028480078D9
:100E8000401C2749087008460078C82803DD4FF445
:100E90007A70214988812048807820B11E480088D6
:100EA0001D4908800CE01E484078401C1C494870D1
:100EB00008464078C82803DD4FF47A701649088048
:100EC0001548807920B114488088134988800CE047
:100ED00013488078401C1249887008468078C828DA
:100EE00003DD4FF47A700C4988800B48807A20B17A
:100EF00009480089084908810CE00948C078401C6D
:100F00000749C8700846C078C82803DD4FF47A70D6
:100F10000149088110BD0000800000200008004049
:100F20004C00002024000020300000202800002079
:100F300025000020320000202A000020260000208A
:100F4000340000202C000020270000203600002064
:100F50002E00002010B50021BD4881768175817476
:100F600081770221BB4800F0E6F900283FD002213A
:100F7000B84800F0B5F90121B54881740020B649A0
:100F80000870B648007800F0800020B30021B14816
:100F900000F08EFAAF4800F0C1F9B1490880402056
:100FA000AE490870AE480088AE490988884207DD1E
:100FB000AB480088AB490988401AA549088216E069
:100FC000A84800884FF6FF71081AA5490988084407
:100FD0009F4908820BE002219E4800F069FA8020B8
:100FE0009E4908709B4800F099F99E4908800421A9
:100FF000984800F0A0F900283FD00421954800F05F
:101000006FF90121924881750020934948709648F4
:10101000007800F0800020B38E4800F082F99349F8
:1010200008804020904908709048008890490988BD
:10103000884207DD8D4800888D490988401A844917
:10104000888209E08A4800884FF6FF71081A8749AC
:10105000098808447E49888200217E4800F08CFA85
:101060000BE08020804908707A4800F05AF98049E6
:1010700008800221774800F07FFA0821754800F0C7
:101080005AF900283FD00821724800F029F90121BF
:101090006F4881760020704988707648007800F0AB
:1010A000800020B36B4800F03FF97349088040206E
:1010B000704908707048008870490988884207DDC7
:1010C0006D4800886D490988401A6149088309E024
:1010D0006A4800884FF6FF71081A67490988084472
:1010E0005B49088300215B4800F0B0FA0BE08020E8
:1010F00060490870574800F017F9604908800221DC
:10110000544800F0A3FA1021524800F014F990B3AB
:101110001021504800F0E4F801214D48817700206B
:101120004D49C8705648007800F0800020B3494807
:1011300000F0FDF85349088040205149087051489B
:10114000008851490988884207DD4E4800884E4989
:101150000988401A3E49888309E04B4800884FF6C9
:10116000FF71081A474909880844394988830021D2
:10117000384800F0BFFA0BE080204149087035483C
:1011800000F0D5F8404908800221324800F0B2FA58
:101190000121304800F0CFF8002857D001212D4818
:1011A00000F09EF82A48807C20B12948008A28490E
:1011B00008820CE028480078401C2749087008463F
:1011C0000078C82803DD4FF47A702149088220484E
:1011D000807D20B11E48808A1D4988820CE01E480F
:1011E0004078401C1C49487008464078C82803DDF8
:1011F0004FF47A70164988821548807E20B11448D1
:10120000008B134908830CE013488078401C124976
:10121000887008468078C82803DD4FF47A700C493E
:1012200008830B48807F20B10948808B0849888358
:101230000CE00948C078401C0749C8700846C078CF
:10124000C82803DD4FF47A700149888310BD00007F
:1012500080000020000C00405000002038000020DA
:10126000440000203C0000203900002046000020FF
:101270003E0000203A0000204800002040000020EE
:101280003B0000204A0000204200002010B5012150
:101290000A4800F050F880B10121084800F020F819
:1012A00007480068401C0649086008460068054970
:1012B000884202D300200249086010BD001000409F
:1012C000040000208096980021B1028842F080023C
:1012D000028004E002884FF67F731A400280704754
:1012E000CA430282704721B1028842F001020280A3
:1012F00004E002884FF6FE731A400280704731B155
:10130000B0F8442042F40042A0F8442005E0B0F8D0
:101310004420C2F30E02A0F8442070470146888E94
:1013200070470146088F70470146888F7047014615
:10133000B1F84000704730B5024600200023002479
:10134000158A05EA0103958905EA010413B10CB178
:10135000012000E0002030BD70B505460C46244851
:1013600085420ED0234885420BD0B5F1804F08D07E
:101370002148854205D02148854202D02048854237
:1013800000D100E000BF208850B92389A28861887D
:101390002846FFF71FFBE188284600F0C5F925E045
:1013A000208804280AD12389A28861882846FFF76B
:1013B00051FBE188284600F0C0F917E02088082892
:1013C0000AD12389A28861882846FFF78FFBE1882C
:1013D000284600F0BFF909E02389A28861882846E1
:1013E000FFF7CCFBE188284600F0BDF970BD000096
:1013F000002C01400034014000040040000800407F
:10140000000C00401AB183890B43838102E0838979
:101410008B4383817047000070B5002400220023B5
:10142000058C4FF6FE7635400584028C8388048B4C
:101430004FF68F752C40B51E2C400D882C43751E21
:101440002A400D892A434D882A43144DA8420BD0C7
:10145000134DA84208D0134DA84205D0124DA84202
:1014600002D0124DA84213D14FF6F7752A404D898C
:101470002A434FF6FB752A408D882A434FF6FF65B5
:101480002B404FF6FF552B408D892B43CD892B43A5
:1014900083800483CD888586028470BD002C014042
:1014A0000034014000400140004401400048014038
:1014B0000A460021018C4FF6FD7319401143018447
:1014C00070470A460021018B4FF6F773194011430C
:1014D0000183704770B5002400220023058C4FF66D
:1014E000EF7635400584028C8388048B48F6FF75BF
:1014F0002C404FF6FF452C400D884FF6FF7606EA4C
:1015000005252C434FF6DF752A400D8906EA05159F
:101510002A434D8806EA05152A43154DA84202D0F4
:10152000144DA8421DD14FF67F752A404D894FF6C4
:10153000FF7606EA05152A434FF6BF752A408D88C7
:1015400006EA05152A434FF6FF352B404FF2FF758B
:101550002B408D8906EA85052B43CD8906EA850552
:101560002B4383800483CD880587028470BD0000EF
:10157000002C0140003401400A460021018C4FF646
:10158000DF7319404FF6FF7303EA02131943018416
:1015900070470A460021018B4FF2FF7319404FF646
:1015A000FF7303EA022319430183704770B50024D7
:1015B00000220023058C4FF6FF6635400584028C1F
:1015C0008388848B4FF68F752C404FF6FC752C402A
:1015D0000D882C434FF6FF552A400D894FF6FF76B4
:1015E00006EA05252A434D8806EA05252A43154DB6
:1015F000A84202D0144DA8421DD14FF2FF752A40D7
:101600004D894FF6FF7606EA05252A434FF6FF354A
:101610002A408D8806EA05252A434EF6FF752B40A1
:101620004DF6FF752B408D8906EA05152B43CD89B4
:1016300006EA05152B4383808483CD888587028441
:1016400070BD0000002C0140003401400A4600211A
:10165000018C4FF6FF5319404FF6FF7303EA022344
:101660001943018470470A460021818B4FF6F773B6
:10167000194011438183704770B500220023002474
:10168000058C4EF6FF7635400584038C8488828B6A
:1016900048F6FF752A404FF6FF452A400D884FF661
:1016A000FF7606EA05252A434DF6FF752B400D8986
:1016B00006EA05352B434D8806EA05352B430B4DCD
:1016C000A84202D00A4DA84208D14BF6FF752C4023
:1016D0008D894FF6FF7606EA85152C438480828338
:1016E000CD88A0F84050038470BD0000002C01405C
:1016F000003401400A460021018C4DF6FF73194069
:101700004FF6FF7303EA02331943018470470A4618
:101710000021818B4FF2FF7319404FF6FF7303EAEC
:101720000223194381837047028B4FF6F3731A40EB
:101730000283028B0A4302837047028B4FF2FF330E
:101740001A400283028B4FF6FF7303EA01231A4308
:1017500002837047828B4FF6F3731A408283828B29
:101760000A4382837047828B4FF2FF331A40828391
:10177000828B4FF6FF7303EA01231A43828370477B
:10178000002202881D4B98420ED01D4B98420BD070
:10179000B0F1804F08D01B4B984205D01A4B9842AD
:1017A00002D01A4B984204D14FF68F731A404B88DF
:1017B0001A43174B984207D0164B984204D04FF665
:1017C000FF431A40CB881A4302808B8883850B889D
:1017D00003850A4B98420BD0094B984208D00E4B18
:1017E000984205D00D4B984202D00D4B984201D142
:1017F0000B7A03860123838270470000002C01408E
:10180000003401400004004000080040000C00408B
:10181000001000400014004000400140004401401E
:101820000048014010B50821324800F086F810B198
:10183000304800F04BF940F225512F4800F08AF86B
:10184000002855D02C48001D0088C4B22B480078D1
:1018500058B9692C05D129480078401C27490870DF
:1018600041E00020254908703DE024480078012827
:101870000BD17F2C05D121480078401C1F490870EE
:1018800031E000201D4908702DE01D481B490978F2
:1018900044541A480078132820D1002017490870B2
:1018A0001748001F0079692813D11548001F407997
:1018B0007F280ED11248001F807D7F2809D1104853
:1018C000001FC07D692804D101200D49091F8876B9
:1018D00009E002200A49091F887604E007480078D9
:1018E000401C0649087040F22551024800F00AF8F1
:1018F00010BD0000003801400048004054000020A6
:10190000BF00002010B50022002340F66A14A14257
:1019100000D100BF0A1201249440A3B2DC4304802A
:1019200010BD21B1828942F40052828104E0828993
:101930004DF6FF731A408281704702460020B1F5D0
:10194000007F00D100BF13880B400BB1012000E0E5
:101950000020704770B502460024002300250020B7
:1019600040F66A16B14200D100BFC1F3421501F042
:101970001F03012606FA03F3012D02D19689334095
:1019800006E0022D02D1168A334001E0968A3340E8
:101990000C12012606FA04F41688344013B10CB177
:1019A000012000E0002070BDF0B5034600240026B1
:1019B0000025002040F66A17B94200D100BF184642
:1019C000C1F3421401F01F06012707FA06F5012CA6
:1019D00001D10C3004E0022C01D1103000E01430B1
:1019E0001AB107682F43076002E00768AF4307603A
:1019F000F0BD00002DE9F04786B005460E460024F4
:101A0000A24600BFA1460027B08900B100BF2F4603
:101A10002C8A4CF6FF700440F08804432C82AC8979
:101A20004EF6F3100440B0883189084371890843A9
:101A30000443AC81AC8A4FF6FF400440B0890443B4
:101A4000AC8201A8FEF7A0FE1F48874202D1DDF854
:101A500010A001E0DDF80CA0A88900F4004040B11E
:101A60000AEBCA0000EB0A1031684900B0FBF1F83C
:101A700007E00AEBCA0000EB0A1031688900B0FBEE
:101A8000F1F86420B8FBF0F004012009642101FBA7
:101A90001089A88900F4004040B1322000EBC90051
:101AA000B0FBF1F000F00700044308E0322000EB47
:101AB00009106421B0FBF1F000F00F0004432C8109
:101AC00006B0BDE8F0870000003801400146888874
:101AD000C0F30800704700BFFEE730380A2801D283
:101AE000012070470020704700BF7047C24800883F
:101AF00040F2C351884205DBBF48008840F2F551EF
:101B000088420ADDBC480088B0F5757F05DBBA481D
:101B1000008840F63401884203DD40F2DC50B649CB
:101B20000880B5480088B0F57A7F08DAB2480088A6
:101B3000B0F5757F03DD4FF47A70AF490880AE4889
:101B40000088B0F5FA6F09DDAB48008840F6340133
:101B5000884203DA4FF4FA60A7490880A6488088D3
:101B600040F2C351884205DBA348808840F2F5511A
:101B700088420ADDA0488088B0F5757F05DB9E4865
:101B8000808840F63401884203DD40F2DC509A49F7
:101B9000888099488088B0F57A7F08DA96488088EE
:101BA000B0F5757F03DD4FF47A70934988809248D1
:101BB0008088B0F5FA6F09DD8F48808840F63401DF
:101BC000884203DA4FF4FA608B4988808A4800899A
:101BD00040F2C351884205DB8748008940F2F55145
:101BE00088420ADD84480089B0F5757F05DB8248AC
:101BF000008940F63401884203DD40F2DC507E4922
:101C000008817D480089B0F57A7F08DA7A48008932
:101C1000B0F5757F03DD4FF47A7077490881764817
:101C20000089B0F5FA6F09DD7348008940F6340188
:101C3000884203DA4FF4FA606F4908816E48808960
:101C4000B0F5757F05DB6C48808940F63401884229
:101C500003DD4FF47A706849888167488089B0F560
:101C60007A7F08DA64488089B0F5757F03DD4FF428
:101C70007A706149888160488089B0F5FA6F09DD22
:101C80005D48808940F63401884203DA4FF4FA60F7
:101C9000594988815848008AB0F5757F05DB564858
:101CA000008A40F63401884203DD4FF47A705249CD
:101CB00008825148008AB0F57A7F08DA4E48008AD7
:101CC000B0F5757F03DD4FF47A704B4908824A48BE
:101CD000008AB0F5FA6F09DD4748008A40F6340102
:101CE000884203DA4FF4FA60434908824248808A06
:101CF000B0F5757F05DB4048808A40F634018842A4
:101D000003DD4FF47A703C4988823B48808AB0F505
:101D10007A7F08DA3848808AB0F5757F03DD4FF4A2
:101D20007A70354988823448808AB0F5FA6F09DDC7
:101D30003148808A40F63401884203DA4FF4FA6071
:101D40002D4988822C48008BB0F5757F05DB2A4829
:101D5000008B40F63401884203DD4FF47A70264947
:101D600008832548008BB0F57A7F08DA2248008B7B
:101D7000B0F5757F03DD4FF47A701F4908831E4864
:101D8000008BB0F5FA6F09DD1B48008B40F634017B
:101D9000884203DA4FF4FA60174908831648808BAB
:101DA000B0F5757F05DB1448808B40F6340188421E
:101DB00003DD4FF47A70104988830F48808BB0F5AB
:101DC0007A7F08DA0C48808BB0F5757F03DD4FF41D
:101DD0007A70094988830848808BB0F5FA6F09DD6D
:101DE0000548808B40F63401884203DA4FF4FA60EC
:101DF00001498883704700008000002000B58BB047
:101E000001210420FEF7A0FC01210820FEF79CFC24
:101E100001210820FEF7A8FC01210420FEF7A4FC04
:101E200001210846FEF7A0FC4FF47070ADF82800C1
:101E300028208DF82B000AA95948FEF7A4FB4FF47F
:101E400070715748FEF733FC0F20ADF828002820AA
:101E50008DF82B000AA95348FEF795FB0F21514836
:101E6000FEF725FC4FF6FF70ADF808004720ADF8EF
:101E700004000020ADF80A00ADF8060001A94A48A8
:101E8000FFF77EFC4FF6FF70ADF808004720ADF875
:101E900004000020ADF80A00ADF8060001A943488F
:101EA000FFF76EFC0020ADF81E000120ADF8200009
:101EB0000020ADF82200ADF82400ADF8120001209A
:101EC000ADF814000020ADF81600ADF81800ADF81C
:101ED0001C0007A93448FFF73FFA0420ADF81C00A6
:101EE00007A93148FFF738FA0820ADF81C0007A908
:101EF0002D48FFF731FA0C20ADF81C0007A92A483D
:101F0000FFF72AFA0020ADF8100004A92748FFF7D0
:101F100023FA0420ADF8100004A92448FFF71CFAA6
:101F20000820ADF8100004A92048FFF715FA0C208E
:101F3000ADF8100004A91D48FFF70EFA1E208DF819
:101F4000000002208DF8010000208DF80200012021
:101F50008DF803006846FEF7B3FB32208DF80000D1
:101F600002208DF8010001208DF802008DF8030099
:101F70006846FEF7A5FB01221F210B48FFF742FA36
:101F800001221F210948FFF73DFA01210648FFF70A
:101F9000AAF901210548FFF7A6F90BB000BD000022
:101FA000000C01400008014000080040000C004007
:101FB00010B56FF00400FEF7C7FC0A4800680A4934
:101FC000B0FBF1F0094908700846007800EB4001C9
:101FD000C1EBC0104FF6FF7101EAC0000449088050
:101FE00010BD00006C00002000127A0000000020EC
:101FF000020000200146114A12884A434FF0E023B4
:102000005A6100229A611A46126942F001021A616D
:1020100000BF4FF0E022106900F001021AB100F495
:102020008032002AF5D04FF0E022126922F001023E
:102030004FF0E0231A6100229A61704702000020ED
:102040000146114A12784A434FF0E0235A610022B8
:102050009A611A46126942F001021A6100BF4FF0FC
:10206000E022106900F001021AB100F48032002A67
:10207000F5D04FF0E022126922F001024FF0E02388
:102080001A6100229A6170470000002010B500F02C
:1020900057F910BD00BF054A128802F04002002A1D
:1020A000F9D0C2B2014B1B1D1A8070470048004096
:1020B00010B54FF480511148FEF7F9FA0F48406807
:1020C00020F470400D4948600846406840F4405094
:1020D0004860C9140948FEF7EAFA0220FFF7B0FF8A
:1020E0004FF480510548FEF7E4FA0220FFF7A8FFFD
:1020F0004FF480510148FEF7DAFA10BD001001409C
:1021000010B54FF480511148FEF7D1FA0F484068DE
:1021100020F470400D4948600846406840F4405043
:102120004860C9140948FEF7C4FA0220FFF788FF87
:102130004FF480510548FEF7BCFA0220FFF780FFFC
:102140004FF480510148FEF7B2FA10BD0010014073
:1021500070B5054600241948406820F470401749BE
:1021600048600846406840F40040486000261BE094
:102170004FF480511148FEF79AFA0220FFF760FFF2
:102180004FF480510D48FEF794FA6006040E4FF4A8
:1021900000610A48FEF782FA08B1601CC4B202204E
:1021A000FFF74EFF701CC6B2082EE1DB15B9FFF732
:1021B000A7FF01E0FFF77CFF204670BD0010014043
:1021C00070B504461A48406820F4704018494860C9
:1021D0000846406840F44050486089141448FEF7AF
:1021E00066FA002520E0E00928B14FF400611048AC
:1021F000FEF75FFA04E04FF400610D48FEF757FA6E
:102200006006040E4FF480510948FEF752FA02208E
:10221000FFF716FF4FF480510548FEF748FA0220F9
:10222000FFF70EFF681CC5B2082DDCDB70BD000097
:102230000010014010B51248406820F47040104969
:1022400048600846406840F440504860C9140C4853
:10225000FEF72FFA4FF480510948FEF72AFA0220C0
:10226000FFF7EEFE4FF400610548FEF720FA02206A
:10227000FFF7E6FE4FF480510148FEF718FA10BD53
:102280000010014010B51248406820F47040104919
:1022900048600846406840F44050486089140C4843
:1022A000FEF705FA4FF400610948FEF700FA022034
:1022B000FFF7C6FE4FF480510548FEF7FAF94FF4D8
:1022C00000610348FEF7F5F90220FFF7B9FE10BDE3
:1022D0000010014010B500241848406820F47040F8
:1022E000164948600846406840F400404860C914F8
:1022F0001248FEF7DEF90220FFF7A2FE4FF48051EC
:102300000E48FEF7D6F90220FFF79AFE07E0601CA0
:10231000C4B2FA2C03DDFFF7B5FF012010BD4FF466
:1023200000610648FEF7BAF90028F0D14FF4805159
:102330000248FEF7BCF90020F0E700000010014061
:1023400008B501211420FEF70FFA10208DF80300C4
:102350003020ADF8000003208DF8020069460C48DB
:10236000FEF711F910208DF80300ADF800000320EE
:102370008DF8020069460748FEF705F93021044848
:10238000FEF797F910210348FEF793F908BD000006
:1023900000080140001001401CB54FF4A060FEF79A
:1023A000C7F9FFF705FEFFF771FE00F03BF8FFF7F6
:1023B00025FD4FF4E13000F06DFC0BE000F00CF96E
:1023C000044634B111A0FDF727FFC820FFF712FE25
:1023D00000E000E0F2E700BF002000900346024664
:1023E0000146019000F0D4FA0EE0FFF77FFB0C48A5
:1023F000008B0B49898A0A4DCDE900102B89AA89E7
:10240000A988288800F0C4FAEFE700006D707520F5
:10241000696E6974206572726F722E2E2E0D0A001D
:102420008000002000B589B00121C802FEF79CF9A8
:1024300001210220FEF788F901210C20FEF794F912
:1024400001210846FEF790F9C020ADF820001820C1
:102450008DF8230003208DF8220008A94F48FEF7CD
:1024600092F80320ADF8200018208DF823000320F7
:102470008DF8220008A94A48FEF785F84FF440700D
:10248000ADF8200018208DF8230003208DF82200DD
:1024900008A94248FEF777F844F61F60ADF8180027
:1024A0004720ADF814000020ADF81A00ADF8160072
:1024B0008DF81C0005A93B48FFF762F905A93A48C9
:1024C000FFF75EF901213748FEF7FEFE012136488D
:1024D000FEF7FAFE7020ADF804000120ADF806000A
:1024E0000020ADF80A000220ADF80C000020ADF885
:1024F0000E000420ADF8080001A92A48FEF78CFF61
:1025000001A92948FEF788FF01A92648FEF7E2FF46
:1025100001A92548FEF7DEFF01A92248FFF746F88A
:1025200001A92148FFF742F801A91E48FFF7A4F8C6
:1025300001A91D48FFF7A0F808211A48FEF7C1FFBE
:1025400008211948FEF7BDFF08211648FFF721F8BA
:1025500008211548FFF71DF808211248FFF783F8F6
:1025600008211148FFF77FF808210E48FFF7CFF840
:1025700008210D48FFF7CBF801210A48FEF7BFFEFE
:1025800001210948FEF7BBFE01210648FEF7ABFE1C
:1025900001210548FEF7A7FE09B000BD0008014073
:1025A000000C0140002C01400004004008B501214E
:1025B0001020FEF7D9F848208DF803004FF4806012
:1025C000ADF8000003208DF8020069460148FDF7D0
:1025D000DAFF08BD0010014010B500F073F9FFF7F5
:1025E000E5FF802000F0EAF810B130A0FDF714FEFE
:1025F0006420FFF7FFFC002000F0E0F810B130A0ED
:10260000FDF70AFE0A20FFF7F5FC4FF47A7000F0A0
:1026100020F910B130A0FDF7FFFD0A20FFF7EAFC1A
:10262000032000F0E5F810B132A0FDF7F5FD0A2017
:10263000FFF7E0FC022000F0C9F810B138A0FDF768
:10264000EBFD0A20FFF7D6FC042000F0EBF810B1F8
:102650003EA0FDF7E1FD0A20FFF7CCFC002000F0D2
:10266000D9F810B13FA0FDF7D7FD0A20FFF7C2FC53
:10267000022000F09BF810B142A0FDF7CDFD0A202A
:10268000FFF7B8FC7521692000F038F9682801D1FE
:10269000002010BD7521692000F030F90446214664
:1026A0003EA0FDF7B9FD0120F3E70000706F7765EC
:1026B00072207265736574206661696C210D0A0071
:1026C000706F7765722077616B6520757020666129
:1026D000696C210D0A00000073616D706C652072D9
:1026E0006174652073657474696E67206661696CD6
:1026F000210D0A006779726F73636F7065206675CC
:102700006C6C7363616C652072616E6765207365C4
:102710007474696E67206661696C210D0A0000009F
:10272000616363656C65726174652066756C6C735A
:1027300063616C652072616E67652073657474698E
:102740006E67206661696C210D0A00004C504620BE
:1027500073657474696E67206661696C6564210DC8
:102760000A0000006D6173746572206D6F646520EE
:1027700073657474696E67206661696C65640D0ABF
:102780000000000062797061737320636F6E666988
:1027900067206661696C6564210D0A0044455649ED
:1027A00043452049443A25640D0A000010B504460B
:1027B00022463721692000F0C5F810BD10B5044647
:1027C00022466B21692000F0BDF810BD10B504460B
:1027D0002CB1012C03D0022C01D0032C06D1E00631
:1027E000020E1C21692000F0ADF810BD0120FCE7AD
:1027F00010B504462CB1012C03D0022C01D0032CBF
:1028000006D1E006020E1B21692000F09BF810BDE6
:102810000120FCE710B5044622466A21692000F039
:1028200091F810BD10B504465CB1012C09D0022C02
:1028300007D0032C05D0042C03D0052C01D0062C86
:1028400005D122461A21692000F07CF810BD012034
:10285000FCE770B50446B4F57A7F01DD4FF47A7475
:10286000042C00DA04244FF47A7090FBF4F0401E3C
:10287000C5B22A461921692000F064F805462046B1
:1028800004EBD071C1F34F04FF2C01DB002414E0F2
:10289000BC2C01DB012410E0622C01DB02240CE0E3
:1028A0002A2C01DB032408E0142C01DB042404E0BF
:1028B0000A2C01DB052400E00625E0B2FFF7B2FF99
:1028C00070BD000008B501211020FDF74DFF10205C
:1028D0008DF803004FF4C050ADF8000003208DF8D0
:1028E000020069460448FDF74EFE4FF4C05102480D
:1028F000FDF7DFFE08BD00000010014070B5044682
:102900000D46FFF797FC002141EA4401C8B2FFF7EA
:1029100057FCFFF7DFFC2846FFF752FCFFF7DAFC15
:10292000FFF788FC012101EB4401C8B2FFF748FC26
:10293000FFF7D0FC0020FFF70BFC0646FFF7A2FCD8
:10294000304670BD70B504460D461646FFF772FC62
:10295000002141EA4401C8B2FFF732FCFFF7BAFC9C
:1029600018B1FFF78FFC012070BD2846FFF728FC47
:10297000FFF7B0FC3046FFF723FCFFF7ABFC18B1C4
:10298000FFF780FC0120EFE7FFF77CFC0020EBE77E
:102990002DE9FC5F05460C4616461F46DDE90C890D
:1029A00040F28C50854205DB40F2FA50854201DC52
:1029B00040F2DC5540F28C50844205DB40F2FA5084
:1029C000844201DC40F2DC543A4631469EA0FDF7D9
:1029D00023FC284600F04AFB9E49019000F096FC3B
:1029E00083469D4900F048FA82469C48016850465B
:1029F00000F081FC99490860204600F037FB9549BA
:102A0000019000F083FC8346934900F035FA82463A
:102A100093480168504600F06EFC91490860A6F5A5
:102A20007A7000F00BFB8F49009000F067FB834643
:102A30008D4900F021FA824600F0E0FA80B2019060
:102A400000F014FB89490860A7F57A7000F0F6FAE7
:102A50008449009000F052FB8349019000F00CFA89
:102A6000834600F0CBFA1FFA80FA504600F0FEFAD7
:102A70007F490860A8F57A7000F0E0FA7949009083
:102A800000F03CFB8346784900F0F6F9019000F035
:102A9000B5FA1FFA80FA504600F0E8FA7549086066
:102AA000A9F57A7000F0CAFA6E49009000F026FB92
:102AB0006D49019000F0E0F9834600F09FFA1FFA9B
:102AC00080FA504600F0D2FA6B4908606B496348BF
:102AD000006800F0DFFA01D8684809E061495F4802
:102AE000006800F0D7FB01D85E4801E05B48006851
:102AF000834600F083FA1FFA80FA5546504600F0EC
:102B0000B5FA564908605E495548006800F0C2FAB7
:102B100001D85B4809E053495148006800F0BAFB0E
:102B200001D8504801E04E480068834600F066FA3C
:102B30001FFA80FA5446504600F098FA4849086057
:102B40004E494A48006800F0A5FA01D84B4809E010
:102B500044494648006800F09DFB01D8414801E027
:102B600042480068834600F049FA1FFA80FA564648
:102B7000504600F07BFA3D49086040493C480068F7
:102B800000F088FA01D83D4809E036493848006825
:102B900000F080FB01D8334801E0354800688346E7
:102BA00000F02CFA1FFA80FA5746504600F05EFA01
:102BB0002F49086031492F48006800F06BFA01D8AE
:102BC0002E4809E027492B48006800F063FB01D834
:102BD000244801E027480068834600F00FFA1FFAF6
:102BE00080FAD046504600F041FA22490860254953
:102BF0002148006800F04EFA01D8224809E0224935
:102C00001D48006800F046FB01D81F4801E01A4843
:102C10000068834600F0F2F91FFA80FAD146504668
:102C200000F024FA1449086018480580001D04804B
:102C3000001D0680001D07801548A0F80080001DBB
:102C4000A0F80090BDE8FC9F253664202536640D71
:102C50000A0000000080BB44000016430C00002066
:102C6000100000200080224500007A44140000205B
:102C7000180000201C000020200000200000E1437C
:102C80000080894400004D440000FA4434040040B0
:102C9000342C014070B5054600200B49087048707F
:102CA0008870002405E000210748001D0155601CC4
:102CB000C4B2142CF7DB002003490876C87088766C
:102CC000284600F003F870BDBB00002010B586B0A8
:102CD000044601218804FDF737FD01210820FDF796
:102CE00043FD4FF44050ADF8140003208DF816005A
:102CF00010208DF8170005A92648FDF744FC4FF475
:102D000040512448FDF7D3FC4FF48060ADF8140027
:102D100003208DF8160018208DF8170005A91D480E
:102D2000FDF731FC4FF40060ADF8140004208DF87D
:102D3000170005A91748FDF726FC27208DF800008D
:102D400003208DF8010002208DF8020001208DF88B
:102D500003006846FDF7B4FC01940020ADF80800BC
:102D6000ADF80A00ADF80C00ADF810000C20ADF87D
:102D70000E0001A90848FEF73DFE012240F2255150
:102D80000548FEF711FE01210348FEF7CAFD06B013
:102D900010BD0000000C01400048004090EA010F07
:102DA00048BF81F0004100F1B882421A3CBF801A4E
:102DB00089184FEAD0524FF07F4C1CEA410FA2EB2A
:102DC000D15318BF9CEA026F00F03B804FF0004CDB
:102DD0004CEA00204CEA012121FA03FC10EB0C0C18
:102DE0001ED202F1FF325FEA1C2040EBC25038BF16
:102DF00070471CF07F0F4FEA400C18BFBCF17F4FAB
:102E000038BF7047C3F12003994008BF20F001008C
:102E1000BCF17F4F38BF7047A0F1C04000F035BA19
:102E20004FEA3C00000A40EBC25028BF1CF0FF0FE5
:102E30004FEA400CE6D018BFBCF17F4F38BF704757
:102E4000EAE79CEA026F05D010EA5C0F08BF00F0C9
:102E50000040704710B500F0D2F900BF64FBBE3EE1
:102E6000401058BFC0F14040491058BFC1F1404127
:102E70008142EFF3008070474FF47F0C1CEAD012C0
:102E80001EBF1CEAD11392EA0C0F93EA0C0F00F05C
:102E9000858090EA010F48BF42F4807240F4000C34
:102EA00041F400002CF07F4120F07F4000B58142CA
:102EB000A2EB03020FF2081CACEB504EC0F1000075
:102EC0009EF800E04FEA4E0E00FB0EFC38BF4900B2
:102ED0004FEA2C1C02F5FA020CFB0EF34FEACE1E51
:102EE0004FEA112C4FEAC1210EEB635E42EB224206
:102EF0000EFB0CFC4FEA1C5300FB03114FEA112C94
:102F00004FEA01310EFB0CFC4FEADC4C00FB0C11CC
:102F1000C14228BF09184CEB03335DF804EB10EBFA
:102F2000410143EBC250B2F57C0F38BF704729D541
:102F300012F0F00F1CBF00F1C04000F000407047DD
:102F4000008182838485868788898B8C8D8E8F9182
:102F50009293959697999A9C9D9FA0A2A3A5A7A8A6
:102F6000AAACAEB0B2B3B5B7B9BCBEC0C2C5C7C9D2
:102F7000CCCED1D4D7D9DCDFE2E6E9ECF0F3F7FA36
:102F8000FE0000004FEA400C0CF1807CBCF17E4F4B
:102F900028BF7047B0F1C04000F077B990EA010F48
:102FA0000CEAD11348BF42F48072624538BF6345D2
:102FB00007D213F47F0F16D080EA010000F0004022
:102FC000704710B500F01BF9097EFC3E00F005B813
:102FD00080EA010000F00040704780EA010000F044
:102FE000004000F052B912F47F0F04BF024870474E
:102FF00080EA010000F049B90000C07FC10DD1F1A5
:103000009E0206DB4FEA002343F0004323FA02F05E
:103010007047004207D54FEA4001B1F1FE4F02D29E
:103020004FF00000704710B500F0E9F84992248095
:10303000002070476FEA20007047000010F0004148
:1030400048BF4042B0FA80F310FA03F2C3F19D0387
:103050000BD051EAC35101EB1220530638BF704721
:1030600000F1010008BF20F001007047B0FA80F3C2
:1030700010FA03F2C3F19D030AD0D90501EB122027
:10308000530638BF704700F1010008BF20F001006F
:103090007047000050EA010C00F113801CF5000F8E
:1030A00058BFBCF5000F01D48842704707D710F510
:1030B000000F58BF11F5000F15D4884270478942A0
:1030C00070471CF5000F04D5BCF5000FF7D5814201
:1030D00070474FF0807C1CEB400F38BF1CEB410F5A
:1030E00001D28142704710B500F089F8922449005E
:1030F0004FF000504FF08051FFF7B2BE4FF47F0CFD
:103100001CEAD0121EBF1CEAD11392EA0C0F93EAFC
:103110000C0F00F0478090EA010F48BF42F4807224
:103120004FF0004C4CEA00204CEA012102EB030274
:10313000A0FB0113A2F50002002918BF43F0010310
:103140005B0028BF4FEA330342EB22425FEA132CB5
:103150004CEBC2502EBFBCEB436FB2F57C0F7047F7
:103160004FEA036CBCF1004F08BF20F00100B2F53C
:103170007C0F38BF70470BD582F0FF0212F5803FFD
:10318000C8BF704700F1C040D8BF00F00040704792
:1031900000F5000C5FEA4C0C48BF7047B0F1C0402E
:1031A00000F073B890EA010F0CEAD11348BF42F463
:1031B0008072624538BF634504D280EA010000F0A6
:1031C0000040704710B500F01AF800BF8900013EBA
:1031D00000F007B800F009B85FEA410C5FEA1C6C28
:1031E00008D080EA010000F050B85FEA400C5FEAC6
:1031F0001C6CF6D14FF00040A0F5800070470EF136
:10320000020E2EF0030E5EF8044B244204D44FEA63
:103210004102B2F17F4F11D84FEA4003B3F17F4F23
:103220000CD80ED14FEAD07CB2F17F4F0CEB4C0C96
:103230000CF1020C08BF4CEBD17C04E04FF0080C01
:1032400001E04FEAD17C0CEB4C0324FA03F404F0C8
:103250000704B4F1040C06D20EEB840CBDE8104058
:103260004CF0010C6047DFE80CF0070802024FF059
:103270000040A0F5800010BD0846420018BFD2F102
:10328000807288BF00F0004010BDFF2141EAD0509D
:10329000C005704751EA000C00F113801CF5000FC7
:1032A00058BFBCF5000F01D48142704707D711F514
:1032B000000F58BF10F5000F15D4814270478942A6
:1032C00070471CF5000F04D5BCF5000FF7D58842F8
:1032D00070474FF0807C1CEB410F38BF1CEB400F58
:1032E00001D28842704780EA010081EA000180EA49
:1032F0000100FFF7F8BE80F0004090EA010F7FF573
:1033000054AD81F0004100F008B8000090EA010FD0
:1033100048BF81F000413FF548AD421A04D882F021
:103320000042A0EB020011444FEAD0524FF07F4C14
:103330001CEA410FA2EBD15318BF9CEA026F4AD09E
:103340004FF0004C4CEA00204CEA012121FA03FC2A
:10335000B0EB0C0C0FD412F0FE0F36D05FEA4C002D
:103360001DD5001240EBC25038BF70471CF03F0F14
:1033700018BF70470BE0A2F101025FEA1C2040EB8E
:10338000C25038BF70471CF07F0F18BF7047C3F1A1
:103390002003994014BF401E20F0010070478008B0
:1033A0004FEA122308BF7047B0FA80FCA2EB0C0270
:1033B000CCF1280C60FA0CF093EA122F04BF00EB5A
:1033C000C25070474FEAC3707047130A5FEADC10BF
:1033D00008BF7047F6E79CEA026F04D010EA5C0F62
:1033E00008BF0020704710B5FFF709FF40DFF63E29
:1033F00081F00040704700001834000800000020F1
:10340000800000006C010008983400088000002053
:10341000B80600008801000800000000000000005D
:10342000000000000000E14300808944000000002B
:10343000000000000000000000000000000000008C
:10344000000000000000000000000000000000007C
:10345000000000000000000000000000000000006C
:10346000000000000000000000000000000000005C
:103470000000010203040102030406070809020414
:103480000608000000A24A0400000000000000003E
:0834900001020304060708090C
:0400000508000131BD
:00000001FF
