:020000040800F2
:10000000580E0020150200086F250008B11D0008D9
:100010006B2500089107000833310008000000003C
:100020000000000000000000000000001D28000883
:100030009919000800000000F5250008552900085E
:100040002F0200082F0200082F0200082F020008CC
:100050002F0200082F0200082F0200082F020008BC
:100060002F0200082F0200089D1900082F02000827
:100070002F0200082F0200082F0200082F0200089C
:100080002F0200082F0200082F0200082F0200088C
:100090002F0200082F0200082F0200082F0200087C
:1000A0002F0200082F0200082F0200082F0200086C
:1000B0002F0200082F0200082F0200082F0200085C
:1000C0002F0200082F0200082F0200082F0200084C
:1000D0002F0200085D2E00082F0200082F020008E2
:1000E0002F0200082F0200082F0200082F0200082C
:1000F0002F0200082F0200082F0200082F0200081C
:100100002F0200082F0200082F0200082F0200080B
:100110002F0200082F020008B9290008ED29000865
:100120002F0200082F0200082F0200082F020008EB
:1001300000F002F800F05FF80AA090E8000C82449A
:100140008344AAF10107DA4501D100F054F8AFF277
:10015000090EBAE80F0013F0010F18BFFB1A43F0A5
:10016000010318470C5900002C5900000A444FF0B5
:10017000000C10F8013B13F0070408BF10F8014B06
:100180001D1108BF10F8015B641E05D010F8016B4B
:10019000641E01F8016BF9D113F0080F1EBF10F8AF
:1001A000014BAD1C0C1B09D16D1E58BF01F801CBD2
:1001B000FAD505E014F8016B01F8016B6D1EF9D555
:1001C0009142D6D37047000000230024002500266A
:1001D000103A28BF78C1FBD8520728BF30C148BFAA
:1001E0000B607047642900F07780002070471FB5CE
:1001F0001FBD10B510BD00F071F91146FFF7F7FFF4
:1002000003F062FC00F08FF903B4FFF7F2FF03BCC8
:1002100003F00CF80948804709480047FEE7FEE76D
:10022000FEE7FEE7FEE7FEE7FEE7FEE7FEE7FEE7A6
:1002300004480549054A064B704700005929000843
:100240003101000858080020580E0020580A0020EC
:10025000580A0020704700000FB4044910B503AAE3
:10026000029800F005F910BC5DF814FBEC040020C6
:100270002DE9F0410E460446002020622046E16848
:10028000884730B3252805D0D4E901219047206A5A
:10029000401CF2E7E168204600278847050018D097
:1002A000A5F14100192802D820354FF400673246E5
:1002B000294620462760FFF795FF40B1012804D06A
:1002C000F61D26F007060836D8E7361DD6E728467D
:1002D000DAE7206ABDE8F0812DE9F0410646002406
:1002E00010687529314616A510D0AFF3008000289C
:1002F00002DA404213A507E031688A0701D512A54A
:1003000002E0490704D511A5012401E0AFF3008004
:1003100000210A2206F1240709E0B0FBF2FCB0FB41
:10032000F2F302FB1C00303078541846491C0028B8
:10033000F3D123462A463046BDE8F04100F03EB8EE
:10034000000000002D0000002B0000002000000035
:100350004FF0000200B5134694469646203922BF5E
:10036000A0E80C50A0E80C50B1F12001BFF4F7AFA9
:10037000090728BFA0E80C5048BF0CC05DF804EB8B
:10038000890028BF40F8042B08BF704748BF20F8F9
:10039000022B11F0804F18BF00F8012B70477047F7
:1003A00070477047704710B500F074F8006810BDD2
:1003B00010B5044600F06EF8046010BD2DE9F0475A
:1003C0000D4699469246044600F1240801688806C5
:1003D00004D5E06921F01001216000E00120A8426D
:1003E00001DD471B00E00027A1697A1902EB090033
:1003F000081AA0612078C00602D42046AFF300801E
:10040000002608E0D4E901211AF806009047206A86
:10041000401C761C20624E45F4DB2078C0060AD5CD
:100420002046AFF3008006E0D4E901213020904758
:10043000206A401C2062381EA7F10107F4DC07E0A7
:10044000D4E9012118F805009047206A401C206279
:10045000281EA5F10105F3DC2046AFF300802078CB
:10046000000602D50220BDE8F0870120FBE700006E
:10047000074B70B50D467B4400F015F8044628463E
:1004800000F024F810B14FF0FF3070BD204670BD71
:100490007734000000487047F407002001694A1CC7
:1004A00002610878704700B58FB0CDE901310021B5
:1004B000059105497944CDE9031011466846FFF7D7
:1004C000D7FE0FB000BD0000E5FFFFFF007B00F08E
:1004D0008000704700487047F40700207546FFF71A
:1004E000F9FFAE4605006946534620F007008546F1
:1004F00018B020B5FFF79CFEBDE820404FF0000685
:100500004FF000074FF000084FF0000B21F00701FB
:10051000AC46ACE8C009ACE8C009ACE8C009ACE83E
:10052000C0098D46704710B50446AFF300802046E1
:10053000BDE81040FFF768BE10B578480078002885
:1005400078D077480088401C754908807548B0F914
:100550000000002803DD7348B0F9000003E0714893
:10056000B0F900004042B0F5C87F2BDA6D49B1F90F
:10057000000004F065FF04466B480168204605F062
:100580008BF805D26749B1F9000004F059FF01E08A
:1005900065480068644908606249B1F9000004F0E8
:1005A0004FFF044661480168204604F075FF05D2FC
:1005B0005C49B1F9000004F043FF01E05B480068CA
:1005C0005A4908605748B0F90200002803DD554831
:1005D000B0F9020003E05348B0F902004042B0F520
:1005E000C87F2CDA4F49B1F9020004F029FF044614
:1005F0004D484168204605F04FF805D24949B1F908
:10060000020004F01DFF01E0474840684649486089
:100610004449B1F9020004F013FF0446434841681D
:10062000204604F039FF06D23E49B1F9020004F039
:1006300007FF02E071E03D4840683C4948603948A6
:10064000B0F90400002803DD3648B0F9040003E0E7
:100650003448B0F904004042B0F5C87F2BDA314984
:10066000B1F9040004F0ECFE04462F4881682046EE
:1006700005F012F805D22B49B1F9040004F0E0FEB0
:1006800001E029488068284988602649B1F90400BA
:1006900004F0D6FE044625488168204604F0FCFE9E
:1006A00005D22049B1F9040004F0CAFE01E01F4858
:1006B00080681E4988601A48008840F6B831884230
:1006C0002BD11A4A1168184A106804F019FD044623
:1006D0004FF0804104F082FD12498860134A51684E
:1006E000114A506804F00CFD04464FF0804104F0BC
:1006F00075FD0C49C8600D4A91680B4A906804F07A
:10070000FFFC04464FF0804104F068FD0549086194
:100710000020034908800149087010BD49000020ED
:100720006800002028000020500000205C0000200D
:1007300070B5044600200849086044F04004204693
:1007400002F030F801F0FCFF054601200349C1F832
:10075000AC01284670BD0000AC81214200802142DE
:1007600070B505460C46002007490860284602F08F
:1007700019F8012002F0E4FE204602F013F80120EF
:100780000249C1F8AC0170BDAC8121420080214218
:1007900000BFFEE70E480F490978405C0E490D4A3C
:1007A0001278895C40EA01210C480A4A127820F844
:1007B000121008480078072805DA06480078401C1F
:1007C0000449087002E000200249087070470000E8
:1007D000290500203105002021050020E207002026
:1007E0001CB501AA911E684601F0C4FDBDF80000C9
:1007F0004F490880BDF802004880BDF80400888099
:10080000B1F9000004F01CFE4A49097801EB4101EE
:10081000494A42F821004649B1F9020004F010FEAD
:100820004449097801EB4101434A02EB81014860E8
:100830003F49B1F9040004F003FE3E49097801EB99
:1008400041013D4A02EB810188603A480078401C32
:1008500038490870084600780A2801DB0020087033
:100860003349B1F9000004F0EBFD04463348016858
:10087000204604F045FC314908602D49B1F90200D9
:1008800004F0DEFD04462D484168204604F038FCA3
:100890002A4948602649B1F9040004F0D1FD044614
:1008A00026488168204604F02BFC24498860214AB0
:1008B000127802EB4202204B53F822101F4A1068B4
:1008C00004F026FF1D4908601A4A127802EB420222
:1008D000194B03EB82025168184A506804F018FF64
:1008E00016494860134A127802EB4202124B03EB9E
:1008F00082029168114A906804F00AFF0F498860EB
:1009000008680F4904F06AFC094948610B494868C6
:100910000B4904F063FC0649886108498868084966
:1009200004F05CFC0249C861FFF706FE1CBD000034
:10093000280000206A000020A806002020070020D0
:100940000000204101B596B0FE48806A1590FD4830
:10095000C06A1490FB48006B1390FA48006912902B
:10096000F84840691190F74880691090F649169848
:1009700004F0C6FDF5490D9004F0C2FD0E90F44858
:10098000C0690690F248C0690590069904F0B8FD68
:100990000890EF4880690490ED48806903900499BD
:1009A00004F0AEFD0690EA4840690490E8484069CA
:1009B0000390049904F0A4FD0590069904F0A0FBAF
:1009C0000790089904F09CFB099004F06DFBCDE9B9
:1009D0000A0103F081FBCDE90C0103F0D3FDDD49F1
:1009E00008600021DB48006804F0BAFC59D0D84800
:1009F00040690A90D74801680A9804F0EFFB0B9011
:100A0000D548006801460A900B9804F081FE0C90CE
:100A10000E9904F075FD0D90CF48006801460C90CA
:100A20000D9804F06DFBCC490860C94880690A90B4
:100A3000C84801680A9804F0D1FB0B90C64840688A
:100A400001460A900B9804F063FE0C900E9904F096
:100A500057FD0D90C048406801460C900D9804F079
:100A60004FFBBD494860BA48C0690A90B94801685F
:100A70000A9804F0B3FB0B90B748806801460A90CF
:100A80000B9804F045FE0C900E9904F039FD0D9082
:100A9000B148806801460C900D9804F031FBAE49D6
:100AA0008860AE4AAC49AE4802F074FFAB4840687B
:100AB0000690AA4840680590069904F021FD089028
:100AC000A64800680690A54800680590069904F0BD
:100AD00017FD0790089904F013FB099004F0E4FA5D
:100AE000CDE90A0103F0F8FACDE90C0103F04AFD63
:100AF0009C4908609948006800210D9004F030FC82
:100B00002ED09648406800210D9004F029FC27D093
:100B10009248806800210D9004F022FC20D0002132
:100B20009048006804F01CFC1AD08C4840680A9079
:100B30008C4801680A9804F051FB0C9087480068C3
:100B40000A90884801680A9804F048FB0B900C99B9
:100B500002F03CFD84490D9004F0D2FC834908600A
:100B6000834880680A908248006809900A9904F0D6
:100B7000C7FC0C907E48C0680A907D484068099088
:100B80000A9904F0BDFC0B900C9904F0C1FD4FF0E4
:100B900080410D9004F0B4FC7149086074484068CD
:100BA0000A907348006809900A9904F0A9FC0C9017
:100BB0006F48C0680A906E48806809900A9904F0EE
:100BC0009FFC0B900C9904F09BFA4FF080410D9024
:100BD00004F096FC62494860654880680990644862
:100BE00080680890099904F08BFC0B90604840687D
:100BF00009905F4840680890099904F081FC0A90C8
:100C00000B9904F07DFA4FF080410C9004F078FCD1
:100C10004FF07E510D9004F070FD514988605448AA
:100C200080680990524880680890099904F068FC2F
:100C30000B904F48C06809904D48C06808900999CA
:100C400004F05EFC0A900B9904F05AFA4FF08041D0
:100C50000C9004F055FC4FF07E510D9004F04DFDCA
:100C600044490860424880680A90414840680990B9
:100C70000A9904F045FC0C903D48006880F0004063
:100C80000A903B48C068014609900A9804F038FC75
:100C90000B900C9904F034FA4FF080410D9004F061
:100CA0002FFC344948603248C0680A903048406898
:100CB00009900A9904F024FC0C902D4880680A9051
:100CC0002B48006809900A9904F01AFC0B900C99C3
:100CD00004F01EFD4FF080410D9004F011FC2549F9
:100CE0008860234880680A902148406809900A99E2
:100CF00004F006FC0C901E48C0680A901C4800686E
:100D000009900A9904F0FCFB0B900C9904F0F8F997
:100D10004FF080410D9004F0F3FB17490860144830
:100D200040680990124840680890099904F0E8FB6F
:100D30000B900F48C06809900D48C0680890099949
:100D40001CE0000060050020C3F5C8400000A04181
:100D50002800002098000020980700208C07002021
:100D60002C0700209400002033336542B00400209B
:100D700078000020380700204407002004F0C0FB62
:100D80000A900B9904F0BCF94FF080410C9004F0EC
:100D9000B7FB4FF07E510D9004F0AFFCFE49486068
:100DA000FE48C0680A90FD48806809900A9904F0DE
:100DB000A7FB0C90F948006880F000400A90F748C3
:100DC0004068014609900A9804F09AFB0B900C9930
:100DD00004F096F94FF080410D9004F091FBEE493C
:100DE00088601099084604F08BFB0890119908461A
:100DF00004F086FB06901299084604F081FB0590EA
:100E0000069904F07DF90790089904F079F90990A2
:100E100004F04AF9CDE90A0103F05EF9CDE90C01CD
:100E200003F0B0FBDE490860DE480168DC4800687A
:100E300004F06EFCDC490C90169804F061FBDB4971
:100E40000A9004F05DFB0B900C9904F059FB0D9097
:100E5000D44801680D9804F053F9D2490860002184
:100E6000129804F019FC01D2129802E0129880F056
:100E70000040CF490D9004F00FFB7DD20021119866
:100E800004F00AFC01D2119802E0119880F00040B1
:100E9000C7490D9004F000FBEFD20021109804F038
:100EA000FBFB01D2109802E0109880F00040C0498E
:100EB0000D9004F0F1FAE0D2B9480168129804F0FC
:100EC0008DF91290B6480168119804F087F91190D5
:100ED000B3480168109804F081F91090B048016897
:100EE000B44804F0D9FA74D2B149AD48006804F0AE
:100EF000D3FA6ED2B048406801460B90109804F0C7
:100F0000FFFA0D90AC48806801460B90119804F0F0
:100F1000F7FA0C900D9904F0FBFBA849C860A648AD
:100F2000806801460B90129804F0EAFA0D90A248EE
:100F3000006801460B90109804F0E2FA0C900D99AD
:100F400004F0E6FB9D4908619749169804F0D8FA29
:100F50004FF07E510D9004F0D3FA0F9097488069BE
:100F60000B909648C0680A900B9904F0D1FB0C9046
:100F70000F9904F0C5FA00E027E00D908F488069D2
:100F800001460C900D9804F0BBF88C498861084626
:100F9000C0690B90084600690A900B9904F0B8FBF1
:100FA0000C900F9904F0ACFA0D908448C06901468A
:100FB0000C900D9804F0A4F88049C8610846806937
:100FC00008600846C069486003E000207B4908606B
:100FD00048607A4800687A490A9004F091FA4FF024
:100FE00080410B9004F08CFA0C90169904F088FA6A
:100FF0000D907248406A01460C900D9804F080F8FC
:101000006E494862084640686D490A9004F078FAD3
:101010004FF080410B9004F073FA0C90169904F095
:101020006FFA0D906548806A01460C900D9804F0A7
:1010300067F8624988620846806861490A9004F04E
:101040005FFA4FF080410B9004F05AFA0C90169919
:1010500004F056FA0D905948C06A01460C900D985C
:1010600004F04EF85549C8620846406A55490D904B
:1010700004F012FA01D253480AE05048406A52493B
:101080000D9004F009FB01D24F4801E04B48406A43
:101090004A4948620846806A4A490D9004F0FCF9C2
:1010A00001D248480AE04548806A47490D9004F05B
:1010B000F3FA01D2444801E04048806A3F4988621F
:1010C0000846C06A3F490D9004F0E6F901D23D4858
:1010D0000AE03A48C06A3C490D9004F0DDFA01D2BA
:1010E000394801E03548C06A3449C86232488068EE
:1010F00000210D9004F0D0FA0BD834480168344830
:10110000006804F005FB0D9001F08AFE314908608B
:1011100015E031492E48006803F0F2FF2C490860C1
:101120000846006801F07CFE2848016828480068ED
:1011300004F0EEFA0D9001F073FE264908601F4896
:10114000406A0A901D48006809900A9903F0D8FF88
:1011500022490B9004F0D4F90D90174800680990CB
:101160001C480168099804F0CBF90A90159904F01D
:10117000C4FA1B490B9004F0C3F90C900D9903F0CD
:10118000BFFF0E4908630846806A0A900846406817
:1011900009900A9926E0000044070020780000200A
:1011A0008800002090000020C3F5C84000002041C6
:1011B0000080894500806D452C07002050070020E5
:1011C000CDCCCC3D34FA0EBD34FA0E3D7400002077
:1011D000B0040020AC040020000034439A99193F69
:1011E00034FA8E3C03F08CFFFE490B9004F088F932
:1011F0000D90FD4840680990FC480168099804F08A
:101200007FF90A90149904F078FAF9490B9004F0E8
:1012100077F90C900D9903F073FFF6494863F24893
:1012200080680B90F14801680B9804F069F90C9004
:10123000139904F062FAEE490D9004F061F9ED495A
:1012400088630846806B0990EB48C068089009994C
:1012500004F056F90B90E748406B0790E648806829
:101260000690079904F04CF90990E348406880F033
:1012700000400790DF48006B01460690079804F095
:101280003FF90890099904F043FA0A900B9904F089
:101290003FFA0C90169904F033F90D90D648006887
:1012A00001460C900D9803F02BFFD3490860D148FC
:1012B000406B09900846C0680890099904F020F92D
:1012C0000B90CC48806B0790CB48806806900799BC
:1012D00004F016F90990C748006B0790C6480068EB
:1012E0000690079904F00CF90890099903F008FF9B
:1012F0000A900B9904F00CFA0C90169904F000F97E
:101300000D90BD48406801460C900D9803F0F8FE22
:10131000B9494860B748006B09900846C068089012
:10132000099904F0EDF80B90B248806B0790B24831
:1013300040680690079904F0E3F80990AD48406BC7
:101340000790AD4800680690079904F0D9F8089016
:10135000099904F0DDF90A900B9903F0D1FE0C9085
:10136000169904F0CDF80D90A348806801460C90C2
:101370000D9803F0C5FEA04988609E48006B099057
:10138000084680680890099904F0BAF80B909948CB
:10139000406B0790984840680690079904F0B0F8B1
:1013A00009909448806B07909348006806900799CD
:1013B00004F0A6F80890099903F0A2FE0A900B9990
:1013C00004F0A6F90C90169904F09AF80D908A484A
:1013D000C06801460C900D9803F092FE8649C860E3
:1013E0000846C06806900846C0680590069904F053
:1013F00087F808908048806804907F488068039050
:10140000049904F07DF806907B48406802907A4881
:1014100040680190029904F073F8049076480068DF
:101420000290754800680190029904F069F80390F1
:10143000049903F065FE0590069903F061FE07909C
:10144000089903F05DFE099003F02EFECDE90A0134
:1014500002F042FECDE90C0103F094F86749086000
:10146000654800680D90084601680D9803F0B6FEC7
:1014700061490860084640680D90604801680D9811
:1014800003F0ACFE5C494860084680680D905B48FC
:1014900001680D9803F0A2FE574988600846C068AD
:1014A0000D90564801680D9803F098FE5249C860A7
:1014B000084680680690084680680590069904F002
:1014C0001FF808904C48406806904B4840680590CB
:1014D000069904F015F80790089903F011FE4FF0F3
:1014E0008041099004F00CF84FF07E510A9004F00E
:1014F00004F90C904048C06807903F488068069007
:10150000079903F0FDFF09903B48406807903A486F
:1015100000680690079903F0F3FF0890099903F01B
:10152000EFFD4FF080410A9003F0EAFF0B900C9919
:1015300002F04CF832490D9003F0E2FF31490860A7
:101540002D48806803902C4800680290039903F0AE
:10155000D7FF05902848C06803902748406802904C
:10156000039903F0CDFF0490059904F0D1F84FF0F2
:101570008041069003F0C4FF079003F095FDCDE98C
:10158000080101F057FE4FF0C0421F4BCDE90A01A0
:1015900003F07AFACDE90C0102F0F4FF1B49086070
:1015A000154840680690144840680590069903F075
:1015B000A7FF08901048006806900F480068059043
:1015C000069903F09DFF0790089903F099FD4FF0ED
:1015D0008041099003F094FF4FF07E510A9004F08F
:1015E00097F815E09A99193F2C070020AC040020C9
:1015F00034FA8E3C50070020780000208C00002038
:10160000333365426C00002066A64C407000002019
:101610000C901548C0680790134800680690079919
:1016200003F06EFF09901048406880F0004007907A
:101630000D48806801460690079803F061FF089006
:10164000099904F065F84FF080410A9003F058FFC3
:101650000B900C9901F0BAFF04490D9003F050FF74
:101660000349086017B000BD78000020333365429D
:10167000740000202DE9F0438FB005461C2108A816
:10168000FEF766FE00F0ECFCB94A911E881E00F0E1
:1016900049FEB74A921F911E881E00F01BFEB449F6
:1016A0000C39B1F9080003F0CBFE0190B0490C39B8
:1016B000B1F90A0003F0C4FE0290AD490C39B1F94A
:1016C0000C0003F0BDFE03909DF817009DF8161066
:1016D00040EA012000B2A6490C39A1F86800B1F92E
:1016E000680003F0ADFE8146A1480C38C16E484643
:1016F00004F00EF807469F49284603F001FF804694
:10170000394603F0FDFE064699480C38C16E304656
:1017100003F0F6FC96490C39C866C86E964903F08A
:101720005DFD0646954903F0EBFC91490C390867CD
:10173000B1F9020003F084FE06468D480C38416B77
:10174000304603F0E5FF8E49086089490C39B1F94C
:10175000040003F075FE064685480C38816B304660
:1017600003F0D6FF8649486081490C39B1F906007B
:1017700003F066FE06467E480C38C16B304603F027
:10178000C7FF7F4988607A4A0C3A116C019803F0D0
:10179000BFFF7B490861764A0C3A516C029803F00E
:1017A000B7FF7749C860724A0C3A916C039803F00E
:1017B000AFFF7349486173480078401CC0B271495B
:1017C00008700A2805DD0020087001206E490870A5
:1017D0000AE06C4800780A2801D1002002E069483C
:1017E0000078401C684908706549086803F0ECFD02
:1017F00000B26649634A127821F8120060494868CD
:1018000003F0E2FD01B2614816305E4A127820F81A
:1018100012105B49886803F0D7FD01B25B482C3099
:10182000584A127820F812105549086903F0CCFD87
:1018300001B256485830534A127820F812105049D5
:10184000C86803F0C1FD01B2504842304D4A1278D9
:1018500020F812104A49486903F0B6FD01B24B481E
:101860006E30484A127820F8121000242AE04749C6
:1018700031F914100898084408904448163030F99B
:10188000140009990844099040482C3030F914009C
:101890000A9908440A903D48583030F914000C99D0
:1018A00008440C903948423030F914000B99084430
:1018B0000B9036486E3030F914000D9908440D90A5
:1018C000601CC4B20A2CD2DB089803F0B9FD0646AE
:1018D0002F4903F083FC26490C390861099803F06D
:1018E000AFFD06462A4903F079FC21490C394861CD
:1018F0000A9803F0A5FD0646254903F06FFC1C4934
:101900000C3988610C9803F09BFD0646204903F0D2
:1019100065FC17490C39C8610B9803F091FD064628
:101920001B4903F05BFC12490C3908620D9803F067
:1019300087FD0646164903F051FC0D490C394862F3
:10194000C869144903F0DCFD09490C398862086A4A
:10195000104903F0D5FD06490C39C862486A0D49A3
:1019600003F0CEFD02490C3908630FB0BDE8F083E7
:101970006C050020C3F5C8400000AA4300001242D5
:101980008C0600204E0000204F000020F0050020B3
:101990000000204198FA793D7047000070B55E481C
:1019A000007868B95D4800885D49086001205A499F
:1019B0000870002002F04EFA00205A49086042E008
:1019C00055480078012834D100205349087001207F
:1019D00002F040FA514800885349086051480068B5
:1019E00040B909684E4A1268881A03F041FD4F4910
:1019F000086013E0494908310988494A1268891A80
:101A0000464A08321288474B1B6803FB0211464ABC
:101A10001268881803F02CFD444908604449434883
:101A2000006803F0DBFB4149086000203D49086085
:101A300009E000203B4908603C49086036490870CD
:101A4000012002F007FA394800683A493A4A127808
:101A500041F82200384800780A2801DB002006E01F
:101A60003548007834490978491C334A11703249A5
:101A70000870002442E02F4850F824102F480068D6
:101A800003F03EFB2D4908602A4951F8240003F079
:101A90000BFB054600224FF0804303F0F3F81FD202
:101AA000244951F82400264903F0F6FC18D22548B1
:101AB0000068401C2349086008460068092806D9C8
:101AC00021480068214908600020214908701D480C
:101AD0000068204988420FD900201A4908600BE0AD
:101AE0001D480078401C1C490870084600780528ED
:101AF00002DB012016490870601CC4B20A2CBADB54
:101B000016490E48006803F069FB0C490860102074
:101B100000F026F870BD0000E8040020242C0140ED
:101B2000E4040020D0040020E0040020D8040020B9
:101B300000006842A4070020C9040020CC04002053
:101B400000004842D404002074000020C00400209B
:101B5000C804002000093D00E904002000002041E5
:101B60000149086070470000140401400021234926
:101B70008279002A3AD00A46126803689A430B46D3
:101B80001A600A1D126803689A430B1D1A600279D5
:101B900011440A6803681A430A60184A0832126836
:101BA00003689A43154B08331A601A1D12680368BC
:101BB0009A43124B0C331A604279102A0ED11A1F25
:101BC000126803681A430D4B08331A601A1D126815
:101BD00003681A43094B0C331A600DE00749427938
:101BE00011440A6803681A430A6005E00279114447
:101BF0000A6803689A430A607047000000040140C5
:101C00002DE9F04102460025002600200023002493
:101C1000002791F803C00CF00F0591F803C00CF0F9
:101C2000100CBCF1000F03D091F802C04CEA05057E
:101C300091F800C0BCF1000F31D0146800202BE0F7
:101C40004FF0010C0CFA00F3B1F800C00CEA0306E7
:101C50009E4220D183004FF00F0C0CFA03F7BC43D7
:101C600005FA03FC4CEA040491F803C0BCF1280F08
:101C700006D14FF0010C0CFA00FCC2F814C00AE0C7
:101C800091F803C0BCF1480F05D14FF0010C0CFADC
:101C900000FCC2F810C0401C0828D1D31460B1F871
:101CA00000C0BCF1FF0F34DD546800202EE000F1CD
:101CB000080C4FF0010808FA0CF3B1F800C00CEA68
:101CC00003069E4221D183004FF00F0C0CFA03F75C
:101CD000BC4305FA03FC4CEA040491F803C0BCF1D0
:101CE000280F05D100F1080C08FA0CF8C2F814808E
:101CF00091F803C0BCF1480F07D100F1080C4FF078
:101D0000010808FA0CF8C2F81080401C0828CED34D
:101D10005460BDE8F0810000F0B50A4600230024BD
:101D20000021002500F00046B6F1004F02D11D4E03
:101D3000F16901E01B4E7168C0F3034583B200F402
:101D40004016B6F5401F08D121F07061154E766837
:101D500026F07066134F7E6012E000F48016B6F530
:101D6000801F06D1032606FA05F4A14341F07061F5
:101D700006E0460D360103FA06F6B14341F0706104
:101D800022B1460D360103FA06F6314300F0004653
:101D9000B6F1004F02D1034EF16101E0014E7160D6
:101DA000F0BD0000000001404161704701617047D3
:101DB00000BFFEE710B500200F4908600F484068DB
:101DC00020F470400D4948600846406840F4405097
:101DD000486000200A49C1F8AC01022001F0B0FBC4
:101DE000012005490860022001F0AAFB00200449F7
:101DF000C1F8B00110BD0000B00122420010014046
:101E00000000224208B50121102000F005FC4FF42B
:101E1000C050ADF8000010208DF8030003208DF8AD
:101E2000020069460448FFF7EBFE4FF4C051024838
:101E3000FFF7BCFF08BD00000010014010B50020F6
:101E40000F4908600F48406820F470400D49486011
:101E50000846406840F44050486001200A49C1F8F3
:101E6000AC01022001F06CFB012005490860022052
:101E700001F066FB00200449C1F8B00110BD00006C
:101E8000B0012242001001400000224270B5054618
:101E900000241748406820F47040154948600846FF
:101EA000406840F400404860002616E000201149D8
:101EB0000860022001F044FB01200F49C1F8B00185
:101EC0006006040E0B488438006808B1601CC4B278
:101ED000012001F035FB701CC6B2082EE6DB15B9F7
:101EE000FFF7ACFF01E0FFF765FF204670BD000083
:101EF00000100140B00122420000224270B50446A9
:101F00001548406820F4704013494860084640680E
:101F100040F440504860002010490860002517E058
:101F2000E0090E49091F08606006040E022001F056
:101F300007FB01200A49C1F8B001022001F000FBB3
:101F4000002006490860022001F0FAFA681CC5B2B8
:101F5000082DE5DB70BD000000100140B0012242F9
:101F60000000224210B50F48406820F470400D492F
:101F700048600846406840F44050486001200A49E3
:101F800008600A49C1F8B001042001F0D9FA002024
:101F900005490860042001F0D3FA00200349C1F884
:101FA000B00110BD00100140AC01224200002242ED
:101FB00010B50F48406820F470400D49486008464D
:101FC000406840F44050486000200A4908600A49CF
:101FD000C1F8AC01042001F0B3FA01200549086002
:101FE0000549C1F8AC01042001F0AAFA10BD0000B7
:101FF00000100140B00122420000224210B500242E
:102000001448406820F4704012494860084640680F
:1020100040F40040486001200F49086001F090FA48
:1020200001200E49C1F8B00101F08AFA07E0601CF6
:10203000C4B2FA2C03DDFFF7BBFF012010BD064838
:10204000803800680028F2D10349091D086000BFEC
:10205000F4E7000000100140AC01224200002242DF
:1020600010B56048007801285CD15F480088401CAA
:102070005D4908805D4800685A49B1F9021008447A
:102080005A490860084641685648B0F904000844B7
:1020900056494860084681685248B0F90600A0F5E4
:1020A0008050084451498860084680694D49B1F91B
:1020B000681008444D4988614B480088322831DB5C
:1020C00008460068322190FBF1F4204603F0B8F98D
:1020D0004449486345484068322190FBF1F420466A
:1020E00003F0AEF93F49886340488068322190FB95
:1020F000F1F4204603F0A4F93A49C8633B488069EB
:10210000322190FBF1F4204603F09AF935498865B5
:102110000020354908803349087034498861886057
:10212000486008602F484078002859D0304800881F
:10213000401C2F4908802D4800692A49B1F9081030
:1021400008442A4908610846C1682648B0F90A00CF
:1021500008442649C860084641692248B0F90C0085
:10216000084422494861084680691E49B1F968104F
:1021700008441E4988611E480088322830DB0869FF
:1021800003F05EF904461B4903F028F8154908647A
:102190001649C86803F054F90446164903F01EF8BE
:1021A000104948641149486903F04AF90446114945
:1021B00003F014F80B4988640C488069322190FBC5
:1021C000F1F4204603F03CF90649C86500200849AF
:1021D000088004494870054988614861C860086101
:1021E00010BD0000600500204A000020D40500203A
:1021F0004C0000200000484210B50024FFF702FE0A
:1022000080226B21682000F08AF9642001F072F9C5
:1022100000226B21682000F082F9032000F03EF9D3
:10222000022000F032F94FF47A7000F05EF90022DB
:102230003821682000F073F900226A21682000F03C
:102240006EF900222321682000F069F982223721EB
:10225000682000F064F97521682000F0B8F80446A1
:10226000712C0ED101226B21682000F058F9002258
:102270006C21682000F053F94FF47A7000F035F9C2
:1022800005E021460CA0FDF7E7FF012010BD00216D
:102290000C2000F09CF80446482C05D111220A219C
:1022A0000C2000F03CF905E0214606A0FDF7D4FF24
:1022B0000220EBE70020E9E76572722049443A25E5
:1022C000640D0A00657272206D61672049443A25E9
:1022D000640D0A002DE9FC4104460D4616466B4686
:1022E00006223B21682000F096F80746BFB99DF80A
:1022F00001009DF8001040EA012000B220809DF806
:1023000003009DF8021040EA012000B228809DF8E9
:1023100005009DF8041040EA012000B230803846E4
:10232000BDE8FC812DE9FC4104460D4616466B468E
:1023300006224321682000F06EF80746BFB99DF8D9
:1023400001009DF8001040EA012000B220809DF8B5
:1023500003009DF8021040EA012000B228809DF899
:1023600005009DF8041040EA012000B23080384694
:10237000BDE8FC812DE9FC4104460D4616466B463E
:10238000062203210C2000F046F80746BFB99DF84D
:1023900000009DF8011040EA012000B220809DF865
:1023A00002009DF8031040EA012000B228809DF849
:1023B00004009DF8051040EA012000B2308011228F
:1023C0000A210C2000F0ABF83846BDE8FC8170B55E
:1023D00004460D46FFF7C6FD002141EA4401C8B29C
:1023E000FFF78CFDFFF70AFE2846FFF787FDFFF792
:1023F00005FEFFF7B7FD012101EB4401C8B2FFF76D
:102400007DFDFFF7FBFD0020FFF740FD0646FFF7CF
:10241000CFFD304670BD2DE9F04106460F4614460B
:102420001D46FFF79FFD002141EA4601C8B2FFF7B4
:1024300065FDFFF7E3FD20B1FFF7BAFD0120BDE820
:10244000F0813846FFF75AFDFFF7D8FDFFF78AFD08
:10245000012101EB4601C8B2FFF750FDFFF7CEFDA9
:102460000DE0012C04D10020FFF710FD287003E0DF
:102470000120FFF70BFD2870601EC4B26D1C002CFC
:10248000EFD1FFF795FD0020D9E710B50446E0062F
:10249000020E1C21682000F042F810BD10B5044661
:1024A000E006020E1B21682000F039F810BD70B55F
:1024B00004460025BC2C01DB012510E0622C01DB69
:1024C00002250CE02A2C01DB032508E0142C01DB9B
:1024D000042504E00A2C01DB052500E006252A4638
:1024E0001A21682000F01BF870BD70B50446B4F5E1
:1024F0007A7F01DD4FF47A74042C00DA04244FF45F
:102500007A7090FBF4F0401EC5B22A46192168206B
:1025100000F005F805462A20FFF7C9FF70BD70B529
:1025200004460D461646FFF71DFD002141EA440111
:10253000C8B2FFF7E3FCFFF761FD18B1FFF738FD04
:10254000012070BD2846FFF7D9FCFFF757FD304644
:10255000FFF7D4FCFFF752FD18B1FFF729FD01206A
:10256000EFE7FFF725FD0020EBE700BFFEE7704730
:1025700070B5002100230F22C47804B3154C2468E1
:1025800004F4E064C4F5E064210AC1F10403CA4024
:10259000447804FA03F184781440214309010E4C75
:1025A0000678A155047804F01F050124AC40057895
:1025B0006D11AD0005F1E025C5F8004109E0047892
:1025C00004F01F050124AC40044D0678761145F84F
:1025D000264070BD0CED00E000E400E080E100E08A
:1025E00002490143024A1160704700000000FA05E9
:1025F0000CED00E07047000029B1064AD2690243A1
:10260000044BDA6104E0034AD2698243014BDA6188
:10261000704700000010024029B1064A9269024347
:10262000044B9A6104E0034A92698243014B9A6128
:10263000704700000010024030B500210022002445
:1026400000232D4D6D6805F00C0121B1042905D042
:10265000082923D105E0294D056022E0274D0560BA
:102660001FE0254D6D6805F47012234D6D6805F46B
:102670008034022505EB92421CB9214D554305607B
:102680000BE01D4D6D6805F400351DB11C4D554323
:10269000056002E0194D5543056002E0174D0560E5
:1026A00000BF00BF144D6D6805F0F0010909154D1C
:1026B0006B5C0568DD4045600F4D6D6805F4E061B9
:1026C000090A104D6B5C4568DD4085600A4D6D68F8
:1026D00005F46051C90A0B4D6B5C4568DD40C5606F
:1026E000054D6D6805F44041890B074D6B5CC5686D
:1026F000B5FBF3F5056130BD0010024000127A0011
:1027000000093D00360500204605002010B50020D8
:1027100009490860452000F045F8002405E000F074
:102720000FF806490855601CC4B2152CF7DB0120D0
:102730000149086010BD0000AC812142CC07002097
:1027400070B50024002523E01348006820F0F00055
:10275000114908600846006840F0800008600F4892
:102760000068012803D100EB4400C4B201E0600618
:10277000040E01200949A431086000F0E1FE0020A8
:102780000749C1F8A801012000F0DAFE681CC5B2B3
:10279000082DD9DB204670BD000C01400481214288
:1027A0000080214270B5044608251948006820F0D1
:1027B000F000174908600846006840F030000860E3
:1027C0000020144908601449C1F8840116E004F09F
:1027D000800020B101200F492439086003E0002067
:1027E0000C492439086001200A49086000F0A8FE5D
:1027F00000200949C1F8A8016006040E281EA5F1B1
:102800000101CDB2E3D1012002492439086070BD35
:10281000000C0140A881214200802142704710B580
:1028200000F002F810BD00000CB5002001900090EF
:102830003348006840F480303149086000BF3048B8
:10284000006800F4003000900198401C019000984E
:1028500018B90198B0F5A06FF1D12948006800F4CB
:10286000003010B10120009001E00020009000989D
:10287000012843D12348006840F010002149086036
:102880000846006820F0030008600846006840F031
:10289000020008601A4840681949486008464068C4
:1028A00048600846406840F48060486008464068D8
:1028B00020F47C1048600846406840F4E810486006
:1028C0000846006840F08070086000BF0C4800684F
:1028D00000F000700028F9D00948406820F003009B
:1028E000074948600846406840F00200486000BF61
:1028F0000348406800F00C000828F9D10CBD000026
:10290000001002400020024010B504460020054996
:1029100008602046FFF746FF01200349C1F8AC01DB
:1029200010BD0000AC81214200802142042808D162
:102930004FF0E021096941F004014FF0E0221161FC
:1029400007E04FF0E021096921F004014FF0E02297
:10295000116170477047000010B51348006840F0DF
:1029600001001149086008464068104908400E49B6
:102970004860084600680E4908400B490860084650
:10298000006820F4802008600846406820F4FE00BB
:1029900048604FF41F008860FFF741FF4FF0006070
:1029A0000449086010BD0000001002400000FFF85C
:1029B000FFFFF6FE08ED00E010B50121084800F029
:1029C000ADF858B10121064800F069F80120054929
:1029D000087005480088401C0349088010BD0000AD
:1029E00000100040340500203205002010B5012100
:1029F0001E4800F093F8002837D01D480068401C9E
:102A00001B490860084600681A49884202D900201C
:102A1000174908601648007800F0010010B9164800
:102A2000FEF728FE124800680A21B0FBF1F201FB14
:102A3000120008B9FDF7D4FE0D4800680521B0FB6F
:102A4000F1F201FB120010B90C48FDF77BFF0848BA
:102A500000680A21B0FBF1F201FB120008B901F095
:102A600061FB0121014800F01AF810BD001400407C
:102A700020000020809698006F12033B0AD7233B6A
:102A800021B1028842F08002028004E002884FF601
:102A90007F731A4002807047CA4302827047CA435C
:102AA0000282704721B1028842F00102028004E0F4
:102AB00002884FF6FE731A400280704731B1B0F8B9
:102AC000442042F40042A0F8442005E0B0F844203D
:102AD000C2F30E02A0F844207047F0B50C4615462C
:102AE0001E460021002200230189028B038C4FF631
:102AF000F877394021434FF6FC473A4040F201173E
:102B00003A434FF6DD773B404FF6FF7707EA06176B
:102B10002F433B43018102830384F0BD30B502465D
:102B2000002000230024158A05EA0103958905EA9F
:102B3000010413B10CB1012000E0002030BD1AB136
:102B400083890B43838102E083898B4383817047B0
:102B500070B5002400220023058C4FF6FE76354028
:102B60000584028C8388048B4FF68F752C40B51E2C
:102B70002C400D882C43751E2A400D892A434D8810
:102B80002A43144DA8420BD0134DA84208D0134D30
:102B9000A84205D0124DA84202D0124DA84213D12E
:102BA0004FF6F7752A404D892A434FF6FB752A40A8
:102BB0008D882A434FF6FF652B404FF6FF552B407B
:102BC0008D892B43CD892B4383800483CD888586D3
:102BD000028470BD002C01400034014000400140DF
:102BE00000440140004801400A460021018B4FF695
:102BF000F7731940114301837047000070B500243A
:102C000000220023058C4FF6EF7635400584028CB8
:102C10008388048B48F6FF752C404FF6FF452C4007
:102C20000D884FF6FF7606EA05252C434FF6DF7533
:102C30002A400D8906EA05152A434D8806EA05153E
:102C40002A43154DA84202D0144DA8421DD14FF67B
:102C50007F752A404D894FF6FF7606EA05152A430F
:102C60004FF6BF752A408D8806EA05152A434FF6B0
:102C7000FF352B404FF2FF752B408D8906EA850505
:102C80002B43CD8906EA85052B4383800483CD88B9
:102C90000587028470BD0000002C01400034014013
:102CA0000A460021018B4FF2FF7319404FF6FF7364
:102CB00003EA0223194301837047000070B5002422
:102CC00000220023058C4FF6FF6635400584028CF8
:102CD0008388848B4FF68F752C404FF6FC752C4003
:102CE0000D882C434FF6FF552A400D894FF6FF768D
:102CF00006EA05252A434D8806EA05252A43154D8F
:102D0000A84202D0144DA8421DD14FF2FF752A40AF
:102D10004D894FF6FF7606EA05252A434FF6FF3523
:102D20002A408D8806EA05252A434EF6FF752B407A
:102D30004DF6FF752B408D8906EA05152B43CD898D
:102D400006EA05152B4383808483CD88858702841A
:102D500070BD0000002C0140003401400A460021F3
:102D6000818B4FF6F7731940114381837047818639
:102D700070470187704781877047000000220288F2
:102D80001D4B98420ED01D4B98420BD0B0F1804F96
:102D900008D01B4B984205D01A4B984202D01A4BD0
:102DA000984204D14FF68F731A404B881A43174B41
:102DB000984207D0164B984204D04FF6FF431A4072
:102DC000CB881A4302808B8883850B8803850A4B46
:102DD00098420BD0094B984208D00E4B984205D030
:102DE0000D4B984202D00D4B984201D10B7A0386CD
:102DF0000123838270470000002C01400034014011
:102E00000004004000080040000C0040001000409A
:102E100000140040004001400044014000480140CF
:102E200010B504460A49204602F036FC04D209498E
:102E3000204602F06DFC10BD0749204602F02CFB35
:102E400004D20449204602F05BF9F4E72046F2E799
:102E5000000034430000B443000034C310B508211F
:102E60003A4800F098F810B1384800F05DF940F2A7
:102E70002551364800F09CF8002865D03348001DE5
:102E80000088C4B232480078002858D13148007810
:102E900078B9692C07D12F480078401C2D4908705B
:102EA0002D4804704BE000202A4908702A49087018
:102EB00045E028480078012812D17F2C07D1254809
:102EC0000078401C234908702348447037E02148AB
:102ED0000078401C1F49087000201F4948702EE0F0
:102EE0001D481C49097844541A480078062821D105
:102EF000002018490870184880781749C978084494
:102F00001549097908441449497908441349087056
:102F1000114880790978884205D101200C49087050
:102F200001F0B4FA02E000200949087000200B49C2
:102F3000087004E007480078401C0649087040F219
:102F40002551024800F00CF810BD00000038014087
:102F5000FC040020FD040020F0040020FE040020FA
:102F600010B50022002340F66A14A14200D100BF30
:102F70000A1201249440A3B2DC43048010BD21B1A5
:102F8000828942F40052828104E082894DF6FF7307
:102F90001A408281704702460020B1F5007F00D1BF
:102FA00000BF13880B400BB1012000E000207047E8
:102FB00070B50246002400230025002040F66A1662
:102FC000B14200D100BFC1F3421501F01F03012639
:102FD00006FA03F3012D02D19689334006E0022D53
:102FE00002D1168A334001E0968A33400C12012642
:102FF00006FA04F41688344013B10CB1012000E045
:10300000002070BDF0B503460024002600250020F6
:1030100040F66A17B94200D100BF1846C1F3421406
:1030200001F01F06012707FA06F5012C01D10C302B
:1030300004E0022C01D1103000E014301AB107680E
:103040002F43076002E00768AF430760F0BD000050
:103050002DE9F04786B005460E460024A24600BF83
:10306000A1460027B08900B100BF2F462C8A4CF63C
:10307000FF700440F08804432C82AC894EF6F310B4
:103080000440B08831890843718908430443AC8106
:10309000AC8A4FF6FF400440B0890443AC8201A8DB
:1030A000FFF7CAFA1F48874202D1DDF810A001E0FD
:1030B000DDF80CA0A88900F4004040B10AEBCA007A
:1030C00000EB0A1031684900B0FBF1F807E00AEBA9
:1030D000CA0000EB0A1031688900B0FBF1F86420E7
:1030E000B8FBF0F004012009642101FB1089A889D4
:1030F00000F4004040B1322000EBC900B0FBF1F019
:1031000000F00700044308E0322000EB09106421BE
:10311000B0FBF1F000F00F0004432C8106B0BDE8D5
:10312000F08700000038014001468888C0F308009D
:10313000704700BFFEE7490050EAC12018BF0420D5
:103140004A0D18BF40F0010040F2FF72B2EB515F30
:1031500008BF40F00200012808BF052070472DE994
:10316000F0414F1E00EBC7010446D1E900011546AE
:103170001E4637F006020DD02A46334601F084FC85
:103180007F1E04EBC703D3E9002301F02DFA37F0CB
:103190000602F1D1022F25D0042F13D0062F18BF1D
:1031A000BDE8F0812A46334601F06EFCD4E90A23DB
:1031B00001F01AFA2A46334601F066FCD4E90823E6
:1031C00001F012FA2A46334601F05EFCD4E90623E8
:1031D00001F00AFA2A46334601F056FCD4E90423EA
:1031E00001F002FA2A46334601F04EFCD4E90223EC
:1031F00001F0FAF92A46334601F046FCD4E90023EF
:10320000BDE8F04101F0F0B9012202F028BB002234
:1032100013461046114601F0A3BA0000024A0020EE
:10322000110702F01CBB000001FDFFFF014600BFBB
:10323000704700002DE9F04D8D4F21F0004A86B017
:1032400005460C46BA452ADBAAEB070028430AD0FC
:103250008848824501DC1AD1CDB106B02846BDE8C8
:10326000F04DFFF7D1BF844A844B284601F00CFC97
:1032700007460E46824A834B2846214601F004FC4D
:1032800006B03A463346BDE8F04D01F0ADB9012035
:10329000FDF78EF806B0BDE8F04DFFF7B8BF7A48ED
:1032A000824542DABAF1795F0BDA2846FFF743FF2D
:1032B000042808BFFFF7B2FF284606B02146BDE844
:1032C000F08D2A460B46104601F0DEFB834602468F
:1032D0006E480E460B4606217844FFF740FF5A46DB
:1032E000334601F0D1FB804669488A465A46334648
:1032F00004217844FFF733FF5A46334601F0C4FBFC
:1033000000223B4601F070F902460B46404651460A
:1033100001F026FA2A46234601F0B6FB06B02A46FB
:103320002346BDE8F04D01F05FB9284624F0004186
:1033300000223D463B4601F0DBFC4FF0FF3202F03D
:103340008EFA0646024653480F460B46062178443D
:10335000FFF705FF32463B4601F096FBCDE9000141
:103360004D4832463B4604217844FFF7F8FE32468A
:103370003B4601F089FB00222B4601F035F98346DC
:1033800002913046394600F0A7FE804643480D467C
:10339000504517DCDDE900015A46029B01F0E0F9D7
:1033A00042462B4601F070FB42462B4601F01CF9C9
:1033B000012202F054FA304A304B01F08BFD304AC2
:1033C000304B4CE04FF0000A52460B46404601F0AD
:1033D0000BF9CDE9031052462B461046194601F071
:1033E00053FB32463B4601F083FCDDE9033201F03A
:1033F000B7F906460F46DDE900015A46029B01F087
:10340000AFF98346009101223046394602F027FA8F
:10341000194A1A4B01F06CFC06460F460122404641
:10342000294602F01CFA5A46009B01F02DFB324659
:103430003B4601F04FFD06460F4601225046294605
:1034400002F00DFA0E4DDFF858802A46434601F08F
:103450004FFC32463B4601F04BFC2A46434601F006
:1034600047FC002CD8BF81F0004106B0BDE8F08DCC
:103470000000F03F0000F07F075C143326A6913C6B
:10348000182D4454FB21F93F0000E03F4427000081
:103490005A270000CE260000E42600003333EF3F19
:1034A000FB21E93F0120014908707047000000201E
:1034B00010B56FF00400FFF739FA0A4800680A49AE
:1034C000B0FBF1F0094908700846007800EB4001B4
:1034D000C1EBC0104FF6FF7101EAC000044908803B
:1034E00010BD00004C05002000127A0002000020F0
:1034F000040000200146114A12884A434FF0E0239D
:103500005A6100229A611A46126942F001021A6158
:1035100000BF4FF0E022106900F001021AB100F480
:103520008032002AF5D04FF0E022126922F0010229
:103530004FF0E0231A6100229A61704704000020D6
:103540000146114A12784A434FF0E0235A610022A3
:103550009A611A46126942F001021A6100BF4FF0E7
:10356000E022106900F001021AB100F48032002A52
:10357000F5D04FF0E022126922F001024FF0E02373
:103580001A6100229A6170470200002010B518B13C
:1035900001230B4C237002E00023094C237019B166
:1035A0000123084C237002E00023064C23701AB15B
:1035B0000123054C237002E00023034C237010BD4F
:1035C000060000200E000020160000202DE9FE4F0E
:1035D000824688460021504601F0C2FE06D10021F5
:1035E000404601F0BDFE01D1002498E0504600F0B5
:1035F000B1FA0190404600F0ADFA0290DDE9010118
:1036000001F04AFF05D2DDE9010101F0E7FD0746BF
:1036100004E0DDE9011001F0E1FD074641493846CB
:1036200001F03AFF01D23D462BE04FF0874138468A
:1036300001F066FF83464FF07C5102F069F8814645
:10364000484601F0C1FE0646304601F0F9FE8346C9
:10365000494602F052F88146334850F82650024657
:1036600052F826100346721C53F8220002F050F85C
:103670004946009001F044FF8346294601F040FD91
:103680000546DDE9011002F007F820D2002140468E
:1036900002F002F809D80021504601F0FDFF01D8E0
:1036A0002C463CE085F0004439E0204C0021504697
:1036B00001F0F2FF05D82946204602F029F8044619
:1036C0002DE02146284602F023F8044627E0002199
:1036D000504601F0E1FF11D8154C0021404601F0A1
:1036E000DBFF05D82946204602F012F8044616E012
:1036F0002946204601F004FD044610E00D4C00214F
:10370000404601F0C9FF05D82946204601F0F8FCE3
:10371000044604E02946204601F0FAFF044620460C
:10372000BDE8FE8F8180803B9C000020DB0F49407C
:10373000DB0FC93FDB0FC9BF70B55A485A4909783A
:1037400000EB011059490978405C59490978401A41
:103750005849087008460078401E0870A020FFF7FE
:10376000D3F8F020FFF7D0F8524801780F20FCF78B
:10377000F7FFC020FFF7C8F84C490978481CC1176B
:1037800000EB11710911A0EB0111484A117085E09D
:1037900049480088B0F5487F11DD00240DE0600045
:1037A000401D4649085C464908556000801D434954
:1037B000085C44490855601CC4B2082CEFDB424841
:1037C000007888B100204049087001203F49086016
:1037D00036490978481CC11700EB11710911A0EB9B
:1037E0000111324A11705AE039480068012800D1AD
:1037F00054E00020FCF79CFF054605F0600000B196
:103800004CE0FEF783FF334840782C4949788842E2
:1038100012D0304880782949897888420CD02D48C8
:10382000C0782649C978884206D02A4800792349B9
:103830000979884200D031E000201F4908802648DD
:10384000007820B3002420E0002201212348FFF764
:1038500076F90020224908706000801D1D490D5C2A
:10386000032D08DB082D06DC6000401D085C1449B0
:10387000085514480555012211461848FFF75FF90D
:10388000012017490870601CC4B2082CDCDB124808
:10389000007810B100200D49086000E078E700BF13
:1038A00070BD00001D590008080500200905002012
:1038B0000A0500200B050020320500200C05002021
:1038C000290500202105002034050020888122429E
:1038D00000812142CC070020350500200010004067
:1038E0000005002010B5FFF727FFFCF753FF10BDC0
:1038F00000BF054A128802F04002002AF9D0C2B285
:10390000014B1B1D1A8070470038014070B50446FA
:103910000D4600260EE00020084908602846FFF703
:10392000E9FD01200649C1F8A0012846FFF7E2FDA4
:10393000701CC6B2A642EEDB70BD0000A0012142A1
:103940000000214208B501212420FEF765FE4FF456
:103950008070ADF8000010208DF8030003208DF872
:10396000020069460948FEF74BF94FF48071074899
:10397000FEF71CFA0420ADF8000069460448FEF783
:103980003FF904210248FEF711FA08BD0008014082
:10399000001401402DE9FC5F0446894692466168A7
:1039A000084601F0ADFD0190A168084601F0A8FDB0
:1039B0000090019901F0A4FB834601F075FB0746D6
:1039C00000F08AFB054600F0DDFD3C4908602168F7
:1039D000084601F095FD0190A168084601F090FDB0
:1039E0000090019901F08CFB834601F05DFB0746D6
:1039F00000F072FB054600F0C5FD3149086000216A
:103A0000A06801F049FD02D24FF0FF3000E0012034
:103A10002C490870084690F9000001F011FD80461D
:103A2000216801F06DFD0646D9F8081001F068FD27
:103A300005462248D9F80010006801F061FD0746EC
:103A4000294601F065FECAF80000D9F80810606840
:103A500001F056FD07461B4890F9000001F0F0FC0C
:103A6000804617480168404601F04AFD0546D9F8EE
:103A7000041001F045FD0646394601F049FECAF83A
:103A80000400D9F80810A06801F03AFD0646D9F8FC
:103A90000410606801F034FD0746D9F80010206872
:103AA00001F02EFD8046394601F02AFB05463146DD
:103AB00001F026FBCAF80800BDE8FC9FA404002022
:103AC000A8040020A00400204FF4A060FEF788FDA9
:103AD000FFF7EEFCFFF736FF00F048F84FF4E13057
:103AE00000F000FD00F0CCF90DE0FEF785FB044688
:103AF00044B121460FA0FCF7AFFBC8210120FFF71E
:103B000005FF00E000E0F0E700BF472140F2E730AA
:103B100000F050FCFFF7C6FC01200C49087048700B
:103B20000B490870C8210420FFF7F0FE01E0FFF701
:103B3000D9FEFCE76D707520646D7020696E697444
:103B4000206572723A2025640D0A0000600500208D
:103B50004900002010B504460021204601F09CFDDC
:103B600001D8204610BD84F00040FBE700B589B0C5
:103B700001210820FEF740FD01210C20FEF74CFD3D
:103B80000720ADF8200018208DF8230003208DF8C1
:103B9000220008A93848FEF733F84FF4E040ADF8AA
:103BA000200010208DF8230003208DF8220008A9A2
:103BB0003248FEF725F84FF4E0413048FEF7F6F8BA
:103BC00041F61F40ADF818004720ADF81400002062
:103BD000ADF81A00ADF8160005A92948FFF7CEF890
:103BE0007020ADF804000120ADF806000020ADF80B
:103BF0000A000220ADF80C0001A92148FEF7A8FF39
:103C000001A91F48FEF7FAFF01A91D48FFF756F862
:103C100001211B48FEF752FF08211948FEF7E4FF77
:103C200008211748FFF73CF808211548FFF796F8D8
:103C300001211348FEF724FF01211148FEF732FF4E
:103C4000002010498880087088710C20C8710020FD
:103C50000D498880087088710D20C87100200B49BB
:103C60008880087088710E20C871002211461046A5
:103C700000F00EF809B000BD00080140000C014042
:103C8000000C0040060000200E000020160000205E
:103C900070B504460E46154651480078012825D1D6
:103CA000B4F5E15F01DB41F61F444D48807960B90E
:103CB00000204B49C9794B4A02EB8101C1F88001D0
:103CC00021464948FFF753F81CE001204449C979CF
:103CD000444A02EB8101C1F8800141F61F40001BFC
:103CE00084B221464048FFF742F80BE000203C49EF
:103CF000C9793C4A02EB8101C1F8800100213A48B0
:103D0000FFF735F839480078012825D1B6F5E15F8D
:103D100001DB41F61F463548807960B90020334900
:103D2000C979304A02EB8101C1F8800131462E4841
:103D3000FFF71FF81CE001212C48C079294A02EB4B
:103D40008000C0F8801141F61F40801B86B23146CA
:103D50002548FFF70EF80BE000202449C979214AD5
:103D600002EB8101C1F8800100211F48FFF701F833
:103D70001F480078012825D1B5F5E15F01DB41F648
:103D80001F451B48807960B900201949C979154A37
:103D900002EB8101C1F8800129461348FEF7EBFFD1
:103DA0001CE001211248C0790E4A02EB8000C0F8E5
:103DB000801141F61F40401B85B229460A48FEF794
:103DC000DAFF0BE000200A49C979064A02EB8101BB
:103DD000C1F8800100210448FEF7CDFF70BD00004E
:103DE0000600002000802142000C00400E00002050
:103DF0001600002070B506460C46154600213046D8
:103E000001F04AFC03D200200F49887102E0012032
:103E10000D4988710021204601F03EFC03D20020AC
:103E20000A49887102E0012008498871002128466A
:103E300001F032FC03D200200549887102E0012024
:103E40000349887170BD0000060000200E000020AC
:103E50001600002010B50446012C06D108200749A1
:103E600048710846FDF782FE06E02CB90C20034994
:103E700048710846FDF77AFE10BD0000B40400202A
:103E80001FB501210520FEF7C7FB04208DF80F00A8
:103E900003208DF80E00C020ADF80C0003A9624885
:103EA000FDF7AEFEC0216048FDF77EFF0121022034
:103EB000FEF7A2FB4FF6FF70ADF804000020ADF84E
:103EC0000000ADF80600ADF8020069465748FEF75D
:103ED00055FF0A231A4603215448FEF7FEFD01212F
:103EE0005248FEF7D9FD012211465048FEF727FE41
:103EF00000204E492431088001214C48FEF7D2FDB4
:103F000001210920FEF788FB04208DF80F00032013
:103F10008DF80E000820ADF80C0003A94448FDF709
:103F20006FFE01210420FEF777FB01214148FDF7D8
:103F3000F3FE4FF40040ADF80C0003A93A48FDF73A
:103F40005FFE01213C48FDF7E7FE01210846FEF730
:103F500053FB4FF6FF70ADF804000020ADF80000F1
:103F60000120ADF806000020ADF8020069464FF0D0
:103F70008040FEF703FF0A231A4603215807FEF785
:103F8000ACFD01218807FEF787FD0122114690074D
:103F9000FEF7D5FD00204FF080418884012188077D
:103FA000FEF780FD01210920FEF736FB04208DF885
:103FB0000F0003208DF80E00C020ADF80C0003A9FF
:103FC0001B48FDF71DFEC0211948FDF7EDFE01213C
:103FD0000420FEF711FB4FF6FF70ADF8040000203F
:103FE000ADF800000220ADF806000020ADF8020098
:103FF00069461248FEF7C2FE0A231A4603210F48FB
:10400000FEF76BFD01210D48FEF746FD012211462A
:104010000A48FEF794FD0020084924310880012158
:104020000648FEF73FFD1FBD0008014000040040A8
:10403000000C0140000230000001180000080040A0
:104040000C48008800B20C494880002009490880CB
:104050000807808C00B20949488000204FF0804159
:1040600088840748008800B2064948800020044937
:104070000880704724040040060000200E00002045
:1040800024080040160000202DE9F04704460D46A4
:1040900000260E4F0E484088B0F5B96F05DB0C487E
:1040A0004088B0F5BE6F00DC00BF2946204601F015
:1040B0002FFB8146394601F023FA8046054901F07D
:1040C0008DF806463046BDE8F087000000409C456C
:1040D000E2070020000066432DE9F04106460F4646
:1040E00000F012FE041E0D4618BF0120284320F0E8
:1040F0000040C0F17F6000F1E040C00F0ED0301CE6
:1041000018BF0120384320F00040C0F17F6000F16B
:10411000E040C00F04BF0120FCF74AF920462946C1
:10412000BDE8F0812DE9F05FFFF78AFF9248008833
:104130009249088090484088488008464088B0F5F9
:10414000B96F04DB08464088B0F5BE6F09DD8B48C7
:104150004088B0F5026F04DC88484088B0F5757F70
:1041600003DA40F2DC508549488084480088B0F585
:10417000B96F04DB81480088B0F5BE6F09DD7F4868
:104180000088B0F5026F04DC7C480088B0F5757FCC
:1041900003DA40F2DC507949088078480089B0F5AC
:1041A000B96F04DB75480089B0F5BE6F09DD73484F
:1041B0000089B0F5026F04DC70480089B0F5757FA6
:1041C00003DA40F2DC506D4908816C480089B0F593
:1041D000AF6F09DD6948008940F69801884203DC29
:1041E00000206749087002E001206549087001223B
:1041F00011461046FFF7CAF96049488801F038F9BE
:104200008346604901F084FA82465F4901F078F9FB
:1042100081465E4900F0E2FF04465849088801F0F3
:1042200027F98346574901F073FA8246584901F04D
:1042300067F98146554900F0D1FF054600205049F5
:10424000087008460078002855D15249284601F0E8
:1042500023FA42D25049284601F01EF93DD24F4878
:1042600001684F48006801F053FA054684F00049A0
:104270004A4621462846FFF7BDFD4A48416A28467E
:1042800000F0C6F806464748416A284600F0C0F8E4
:10429000814600212046FFF7F7FE8246494600F09E
:1042A0002FFF07463F48416A284600F0B1F8814693
:1042B00000212046FFF7E8FE8246494601F028FA31
:1042C000804636480068364908602C48408840F2ED
:1042D000DC51884210D100260EE02A4629462846A5
:1042E000FFF788FD2F48416A284600F091F8804684
:1042F0000746064600E000BF0021304601F0CCF939
:1043000001D2012000E0002008B1304601E086F033
:104310000040814601F074F8234988800021384626
:1043200001F0BAF901D2012000E0002008B13846BE
:1043300001E087F00040814601F062F81B49888067
:104340000021404601F0A8F901D2012000E0002040
:1043500008B1404601E088F00040814601F050F885
:10436000134988800B469A88104B99880E4B988881
:10437000FFF78EFCBDE8F09FF8040020E207002064
:10438000000000200080BB44000066430000FA43A8
:10439000000048420000A0C10000A04174000020BD
:1043A000C404002060050020060000200E0000204C
:1043B000160000207FB505460C4601212020FEF79F
:1043C0001BF9ADF80850ADF804400020ADF80A0024
:1043D000ADF8060001A90D48FEF7D0FC01221146F8
:1043E0000A48FEF7ACFB37208DF8000003208DF85B
:1043F000010001208DF802008DF803006846FEF7E9
:10440000B7F801210148FEF74DFB7FBD00140040C5
:104410002DE9F84F82460C46DFF860B04FF07F5030
:1044200000901749504601F037F902D2DFF850A04A
:1044300006E01449504601F02FF801D2DFF844A0FD
:10444000204600F031FE074600220F4B00F01CFB17
:10445000054600F097F804462046009901F050F810
:1044600005465946504601F04BF80646294600F0ED
:1044700047FE81464846BDE8F88F00000000F04244
:1044800000004842000048C20040AF3F1248007898
:1044900001281FD1002010490870104800786928B1
:1044A00013D10E4840787F280FD10C48C0780B49B3
:1044B000897840EA01200A4908800848407907497C
:1044C000097940EA012006494880002003494870E4
:1044D0000870887170470000FC040020F004002080
:1044E000F804002010B586B00446012144F204000F
:1044F000FEF792F84FF40070ADF8140003208DF829
:10450000160018208DF8170005A91C48FDF778FB48
:104510004FF48060ADF8140004208DF8170005A951
:104520001648FDF76DFB25208DF8000003208DF85F
:1045300001008DF8020001208DF803006846FEF7A7
:1045400017F801940020ADF80800ADF80A00ADF8A6
:104550000C00ADF810000C20ADF80E0001A90848C1
:10456000FEF776FD012240F225510548FEF74AFD8F
:1045700001210348FEF703FD06B010BD000801400D
:104580000038014021F00042A2F16052B2F5801FD4
:1045900001F0004328BFD2F17F6C0BD95FEA001C09
:1045A00043EAC20242EB507018BF704728BF20F0A8
:1045B00001007047B2F5801FBCBF184670474FEA34
:1045C000410C1CF5001F02D2084601F060B870B51E
:1045D00000F004FB00000089FFF7F6BF4FF0004039
:1045E000A0F580007047000010B591EA030F48BFA6
:1045F00083F0004300F17684841A71EB030C05D23A
:10460000121943EB0C03001B61EB0C01DFF824E1F2
:104610004FEA1154A4EB135C1EEA430F18BF9EEA45
:10462000445F73D023EA0E03DCF1200E21EA04512B
:1046300043F4801332D322FA0CFE10EB0E0023FA5F
:104640000CFE41EB0E01CCF1200E03FA0EFE10EB36
:104650000E0051F10001B1F5801FCCF1200E32D2D5
:1046600001EB045112FA0EF2BDE8104058BF70473A
:10467000401C38BF5FEA420218BF7047002814BFD1
:1046800020F0010041F100014FEA410313F5001F42
:1046900038BF7047A1F1C04100F0EEBA012A43EBE8
:1046A0000302ACF1200CDCF11F0E32BF4FF0000E04
:1046B00023FA0CF310EB030041EB0451B4EB115F50
:1046C000D0D0A1EB045101F5801149085FEA300018
:1046D00001EB04510ED350F1000038BF12FA0EFE68
:1046E00008D1BDE81040C9E7401C38BF5FEA42026C
:1046F000CAD1C3E7BDE810404FEA410313F5001FDC
:1047000038BF7047A1F1C04100F0B6BA9EEA445FDD
:1047100008D011EA5E0FBDE8104004BF01F000416F
:1047200000207047BDE8104070B500F057FA00BF98
:1047300064FBBE3E0000E0FF02494FF0000001F0C4
:104740005CB800BF0000F87F491058BFC1F140417C
:104750005B1058BFC3F140438B42EFF300807047BA
:104760002DE9C04130B4DFF8A0C23CEA111418BFF3
:104770003CEA131400F0EC8081EA03051CEA1114F2
:1047800044EAD57418BF1CEA131500F0C780A4EBE7
:1047900005044FF0004545EAC12145EAC32341EA3B
:1047A000505143EA525304F17F74994204F50034A6
:1047B0004FEAC0204FEAC22208BF904200F09C801E
:1047C0004FEA13650FF24016765D4FEA134506FB7C
:1047D00005F7C7F1807706FB07F74FEAD737A7FB46
:1047E00003687642C8F58038A7FB06CE38BFA8F12B
:1047F000010807FB08E64FF0000EA6FB028CE6FB63
:1048000003CEDCF1000CCEF1004E38BFAEF1010E4C
:10481000A6FB0C584FF000074FF00005E6FB0E8793
:10482000A1FB08C6A0FB07CE16EB0E0645F100055E
:10483000E1FB076515F1E04E7EBFA4F580345FEA29
:1048400046066D4116F1800745F100054FEA17272E
:104850004FEA066647EA0567A6F1DE46B6F1805FD5
:104860004FEA15251FD9384624F0010C05EBC47119
:10487000BCF1FE6F01EB0C1102D8F0BCBDE8008169
:1048800024425CBF01F5801E9EEAC47F02D4F0BCC6
:10489000BDE80081244238D4F0BCA1F1C041BDE89C
:1048A000004100F0E9B94FEAD22242EA43524FEA0E
:1048B000D323A7FB02864FEAD02040EA415007FBF2
:1048C00003661EEA0E0F4FEAD12105FB026658BFB0
:1048D000A6EB0056B6EB00564FEA520E4EEAC37EE8
:1048E00018EB0E0E56EB530EBDD518EB02085E41C9
:1048F0007F1C55F10005B6E74FF480154FF0000717
:104900004FF000064FF00008ADE7F0BC4FF000009C
:1049100001F1C04101F00041BDE8008111EA0C1F26
:104920000CEA131500D00CE013EA0C1F00F02580F0
:104930004FF00000F0BC81EA030101F00041BDE846
:104940000081F0BCBDE8004181EA030100F094B9A8
:10495000F0BCBDE8004170B500F040F9097EFC3EB6
:1049600000F007B881EA03014FF0000001F00041B8
:10497000704781EA030100F07FB9F0BCBDE8004157
:104980004FF0000021497047FFFDFBF9F7F5F4F205
:10499000F0EEEDEBE9E8E6E4E3E1E0DEDDDBDAD8DA
:1049A000D7D5D4D3D1D0CFCDCCCBCAC8C7C6C5C438
:1049B000C2C1C0BFBEBDBCBBBAB9B8B7B6B5B4B34F
:1049C000B2B1B0AFAEADACABAAA9A8A8A7A6A5A43A
:1049D000A3A3A2A1A09F9F9E9D9C9C9B9A999998FE
:1049E0009797969595949393929191908F8F8E8EA1
:1049F0008D8C8C8B8B8A898988888787868585842E
:104A000084838382828181800000FF070000F87F19
:104A100051EA030C17D41CF5801F58BFBCF5801F4A
:104A200000F10680994218BF704708BF9042704756
:104A300007D711F5801F58BF13F5801F19D499426D
:104A40007047894270471CF5801F08D5BCF5801F50
:104A5000F7D58B4218BF704708BF824270474FF4AA
:104A6000001C1CEB410F38BF1CEB430F01D28B42E3
:104A7000704770B500F0B2F8922449004FF0005131
:104A80004FF08053FFF760BEDFF848C170B51CEAF5
:104A9000111E1EBF1CEA13159EEA0C0F95EA0C0F9F
:104AA00000F06F8081EA030423EA4C134EEAD47EBF
:104AB00021EA4C1141F4801143F48013AE44A1FB70
:104AC000024CA0FB0365AEF17F7E361955EB0C0559
:104AD000A1FB034C4CF10003A0FB021C16EB0C06DF
:104AE000654153F10003094218BF46F0010613F473
:104AF000007F0BD14FEA03314FEA0530340341EA1E
:104B0000155140EA16506FF003020AE04FEAC32144
:104B10004FEAC520F40241EA555140EA56506FF081
:104B2000020202EB2E4201EB025585EACE710AD059
:104B30005FEA440C18BF24F0004450F1000041F13A
:104B4000000120EAD47040F2FE7C624500D270BDC4
:104B5000A84214BF4FF080444FF04044002E08BFDD
:104B60000024BEF1806FA8BFA1F1C041BDE8704034
:104B700080F282804FF0000001F1C04101F000415D
:104B800070479EEA0C0F0CEA131518BF95EA0C0F3C
:104B900006D04FF0000081EA030E0EF0004170BD18
:104BA00000F01CF88900013E00F007B800F009B8D9
:104BB0004FEA430C5FEA5C5C08D081EA030100F035
:104BC0005BB84FEA410C5FEA5C5CF6D14FF0000045
:104BD000014970470000FF070000F87F0EF1020E48
:104BE0002EF0030E5EF8046B364205D4012A43EB27
:104BF000030515F5001F12D8012841EB010C1CF527
:104C0000001F0CD80ED14FEAD17C15F5001F0CEB1C
:104C10004C0C0CF1020C08BF4CEBD37C04E04FF0C1
:104C2000080C01E04FEAD37C0CEB4C0526FA05F6A4
:104C300006F00706B6F1040C06D20EEB860CBDE8B2
:104C400070404CF0010C6047DFE80CF0090B0202E9
:104C50004FF000414FF00000A1F5002170BD194652
:104C60001046012851EB010418BFD4F5001484BF8D
:104C7000002001F0004170BD0808A0F500114FEAC6
:104C80003101704753EA010C17D41CF5801F58BF3F
:104C9000BCF5801F00F106808B4218BF704708BF2B
:104CA0008242704707D713F5801F58BF11F5801F48
:104CB00019D48B4270479B4270471CF5801F08D562
:104CC000BCF5801FF7D5994218BF704708BF9042C6
:104CD00070474FF4001C1CEB430F38BF1CEB410F17
:104CE00001D2994270470FB40CBC03BCFFF7C1BEA0
:104CF00091EA030F10B581F000413FF57DAC83F0E0
:104D0000004300F0EFB800002DE9F04101F5801CF0
:104D1000BCF5001FC0F2C3804FEA115C21EA0C51C0
:104D20000CF1FD0C41F480115FEA5C0C0CF5C07CC9
:104D300001D3400049413DA4890241EA90518702D4
:104D40008E0E0A0CA45D04FB04F602FB06F6C6F107
:104D50004046A4FB0662F60D46EA422606FB06F430
:104D6000A4FB01235242C3F1404338BF5B1EA6FBA4
:104D700002420024E6FB0324D20B42EA4446A6FB8F
:104D80000623A1FB02E2A3FB07E4A4184FF00002F4
:104D900052F10002E3FB01426442C2F1404E38BFCF
:104DA000AEF1010EA6FB04234FF00002E6FB0E322B
:104DB000A2FB03464FF00004B61954F10004E2FBD5
:104DC0000264A1FB06E6A4FB07E816EB08064FF019
:104DD000000858F10008E4FB01687642C8F1405829
:104DE00038BFA8F10108A2FB06E4A3FB08E52D19D2
:104DF0004FF0000454F10004E2FB0854A1FB05E667
:104E0000A7FB04E818EB06084FF0000656F1000671
:104E1000E1FB048618F1200556F10006A809A8F167
:104E20001B08B10908F03F08B8F10A0F40EA866094
:104E30001CD901EB0C51BDE8F08100BFFCF5EEE898
:104E4000E2DDD8D3CFCBC7C3C0BDB9B6B4B1AEAC29
:104E5000A9A7A5A3A19F9D9B9A9896959392908FA1
:104E60008D8C8B898887868584838281A0FB0068EE
:104E700000FB01F208EB4208B8EB872807D534188D
:104E800058EB0104D5D5401C51F10001D1E7341A8B
:104E900078EB0104CDD4401E71F10001C9E75FEA4F
:104EA0004C0C5FEA9C5C0DD105D34FF0000001F083
:104EB0000041BDE8F081BDE8F04170B5FFF78EFE1E
:104EC0006DDBFFBEBDE8F0414FF0000000497047C8
:104ED0000000F87F10B591EA030F48BF83F000434C
:104EE0003FF58AAB841A71EB030C07D212198CF0D0
:104EF000004C43EB0C03001B61EB0C01DFF8A4E159
:104F00004FEA1154A4EB135C1EEA430F18BF9EEA4C
:104F1000445F00F0B08023EA6E03524221EA04515C
:104F2000C3EB6E0338BF5B1EDCF1200E25D322FAE3
:104F30000CFE10EB0E0043FA0CFE41EB0E01CCF11F
:104F4000200E03FA0EFE10EB0E0051F10001CCF121
:104F5000200E29D412FA0EF201EB0451BDE81040E4
:104F600058BF7047401C1CBFB2F1004F704700286B
:104F70000CBF491C20F00100704712EB020E43EBFE
:104F8000030218BF4FF0010E4EEA4202ACF1200CB2
:104F9000DCF11E0E54D943FA0CFE10EB0E0051F159
:104FA000FF31CCF11E0ED5D50EF1010E12FA0EFE18
:104FB000404141EB010101EB445C5FEA5C5C10D9CC
:104FC00010EBDE7001EB045138BFBEF1004FBDE8BD
:104FD000104018BF704700280CBF491C20F001008A
:104FE000704730D24FEAD42C11F5001124F400643C
:104FF0001BD0B1FA81F20B3AA41AA41ED2F12003FD
:10500000914030FA03F31943904001EBCC71002C2E
:1050100001EB0451BDE81040A8BF704701F1C04149
:105020004FF0000001F000417047B0FA80F310FA31
:1050300003F100D110BDE41A173C4805C90AE4E7A2
:1050400001EB045110BD491001EB0451BDE81040C3
:105050004FEA300002E04FF0000170474A0008BFFD
:105060000042F8D0B2F5001F28BF704701F00041A0
:105070004FF0000070479EEA445F07D011EA5E0FD0
:10508000BDE8104004BF002100207047BDE810407B
:1050900070B5FFF7A3FD00BF40DFF63E83F000418F
:1050A000104670470000E0FF43004FEAD30C4FEA80
:1050B0003C0C43401FBF40070CF1605113F0FE4F02
:1050C00070471CF0006F03D100200CF000417047C6
:1050D0000CF0004343EA507010B540EACC0000F0F9
:1050E00090FA00BF000000924FEA0001FFF7C4BD34
:1050F0004FF000414FF00000A1F500217047000083
:1051000090EA010F48BF81F0004100F10883421A84
:105110003CBF801A89184FEAD0524FF07F4C1CEAEE
:10512000410FA2EBD15318BF9CEA026F00F03B8005
:105130004FF0004C4CEA00204CEA012121FA03FC1C
:1051400010EB0C0C1ED202F1FF325FEA1C2040EB88
:10515000C25038BF70471CF07F0F4FEA400C18BF99
:10516000BCF17F4F38BF7047C3F12003994008BF9F
:1051700020F00100BCF17F4F38BF7047A0F1C04064
:1051800000F085BA4FEA3C00000A40EBC25028BF4D
:105190001CF0FF0F4FEA400CE6D018BFBCF17F4F68
:1051A00038BF7047EAE79CEA026F05D010EA5C0F4F
:1051B00008BF00F00040704710B500F022FA00BFB1
:1051C00064FBBE3E401058BFC0F14040491058BF7C
:1051D000C1F140418142EFF3008070474FF47F0CF2
:1051E0001CEAD0121EBF1CEAD11392EA0C0F93EAFC
:1051F0000C0F00F0858090EA010F48BF42F48072E6
:1052000040F4000C41F400002CF07F4120F07F407E
:1052100000B58142A2EB03020FF2081CACEB504E2A
:10522000C0F100009EF800E04FEA4E0E00FB0EFCBD
:1052300038BF49004FEA2C1C02F5FA020CFB0EF3B2
:105240004FEACE1E4FEA112C4FEAC1210EEB635EEE
:1052500042EB22420EFB0CFC4FEA1C5300FB0311F5
:105260004FEA112C4FEA01310EFB0CFC4FEADC4CEB
:1052700000FB0C11C14228BF09184CEB03335DF849
:1052800004EB10EB410143EBC250B2F57C0F38BF89
:10529000704729D512F0F00F1CBF00F1C04000F09C
:1052A00000407047008182838485868788898B8C43
:1052B0008D8E8F919293959697999A9C9D9FA0A27F
:1052C000A3A5A7A8AAACAEB0B2B3B5B7B9BCBEC0CF
:1052D000C2C5C7C9CCCED1D4D7D9DCDFE2E6E9EC70
:1052E000F0F3F7FAFE0000004FEA400C0CF1807C6E
:1052F000BCF17E4F28BF7047B0F1C04000F0C7B985
:1053000090EA010F0CEAD11348BF42F48072624563
:1053100038BF634507D213F47F0F16D080EA01002F
:1053200000F00040704710B500F06BF9097EFC3EBC
:1053300000F005B880EA010000F00040704780EA04
:10534000010000F0004000F0A2B912F47F0F04BF8A
:105350000248704780EA010000F099B90000C07F60
:1053600050EA010C00F113801CF5000F58BFBCF58A
:10537000000F01D48842704707D710F5000F58BFBF
:1053800011F5000F15D488427047894270471CF50B
:10539000000F04D5BCF5000FF7D5814270474FF0E0
:1053A000807C1CEB400F38BF1CEB410F01D28142C7
:1053B000704710B500F025F9922449004FF00050D5
:1053C0004FF08051FFF7FEBE41000B0ED3F19E025D
:1053D00008D950F400034FEA032323FA02F048BF30
:1053E0004042704710B500F00CF900BF499224808C
:1053F000002070476FF0004282EA200070470000F2
:10540000C10DD1F19E0206DB4FEA002343F00043B9
:1054100023FA02F07047004207D54FEA4001B1F18C
:10542000FE4F02D24FF00000704710B500F0E9F8CF
:1054300049922480002070476FEA200070470000E6
:1054400010F0004148BF4042B0FA80F310FA03F276
:10545000C3F19D030BD051EAC35101EB1220530657
:1054600038BF704700F1010008BF20F0010070470D
:10547000B0FA80F310FA03F2C3F19D030AD0D90504
:1054800001EB1220530638BF704700F1010008BF3E
:1054900020F001007047000050EA010C00F1138079
:1054A0001CF5000F58BFBCF5000F01D488427047AF
:1054B00007D710F5000F58BF11F5000F15D488421B
:1054C0007047894270471CF5000F04D5BCF5000FEA
:1054D000F7D5814270474FF0807C1CEB400F38BFFE
:1054E0001CEB410F01D28142704710B500F089F8E2
:1054F000922449004FF000504FF08051FFF762BEF8
:105500004FF47F0C1CEAD0121EBF1CEAD11392EAA2
:105510000C0F93EA0C0F00F0478090EA010F48BF90
:1055200042F480724FF0004C4CEA00204CEA01211A
:1055300002EB0302A0FB0113A2F50002002918BF31
:1055400043F001035B0028BF4FEA330342EB2242E2
:105550005FEA132C4CEBC2502EBFBCEB436FB2F58D
:105560007C0F70474FEA036CBCF1004F08BF20F07E
:105570000100B2F57C0F38BF70470BD582F0FF02F7
:1055800012F5803FC8BF704700F1C040D8BF00F09F
:105590000040704700F5000C5FEA4C0C48BF7047B4
:1055A000B0F1C04000F073B890EA010F0CEAD113DB
:1055B00048BF42F48072624538BF634504D280EA36
:1055C000010000F00040704710B500F01AF800BF6D
:1055D0008900013E00F007B800F009B85FEA410C0D
:1055E0005FEA1C6C08D080EA010000F050B85FEA66
:1055F000400C5FEA1C6CF6D14FF00040A0F5800033
:1056000070470EF1020E2EF0030E5EF8044B24429A
:1056100004D44FEA4102B2F17F4F11D84FEA400360
:10562000B3F17F4F0CD80ED14FEAD07CB2F17F4F4F
:105630000CEB4C0C0CF1020C08BF4CEBD17C04E0E1
:105640004FF0080C01E04FEAD17C0CEB4C0324FA3C
:1056500003F404F00704B4F1040C06D20EEB840C3E
:10566000BDE810404CF0010C6047DFE80CF0070883
:1056700002024FF00040A0F5800010BD0846420035
:1056800018BFD2F1807288BF00F0004010BDFF212A
:1056900041EAD050C005704751EA000C00F1138078
:1056A0001CF5000F58BFBCF5000F01D481427047B4
:1056B00007D711F5000F58BF10F5000F15D4814220
:1056C0007047894270471CF5000F04D5BCF5000FE8
:1056D000F7D5884270474FF0807C1CEB410F38BFF4
:1056E0001CEB400F01D28842704780EA010081EA3A
:1056F000000180EA0100FFF7F8BE80F0004090EA68
:10570000010F7FF504AD81F0004100F008B8000002
:1057100090EA010F48BF81F000413FF5F8AC421A12
:1057200004D882F00042A0EB020011444FEAD052AC
:105730004FF07F4C1CEA410FA2EBD15318BF9CEAFB
:10574000026F4AD04FF0004C4CEA00204CEA012195
:1057500021FA03FCB0EB0C0C0FD412F0FE0F36D084
:105760005FEA4C001DD5001240EBC25038BF7047B5
:105770001CF03F0F18BF70470BE0A2F101025FEA77
:105780001C2040EBC25038BF70471CF07F0F18BF81
:105790007047C3F12003994014BF401E20F0010060
:1057A000704780084FEA122308BF7047B0FA80FCA8
:1057B000A2EB0C02CCF1280C60FA0CF093EA122F49
:1057C00004BF00EBC25070474FEAC3707047130A22
:1057D0005FEADC1008BF7047F6E79CEA026F04D06E
:1057E00010EA5C0F08BF0020704710B5FFF709FFF3
:1057F00040DFF63E81F0004070470CF00F03092BAC
:1058000008BF082000F059800A2B0BD0082B18BFC6
:10581000704708BF1CF0400F0AD04FF000004FF057
:10582000000170471CF0400F18BF4FF00040704758
:105830001CF0100F08D020F0704300F07F4242EAC5
:10584000D3014FEA4370704700F0604021F07F427F
:1058500042EA000201F07F4040EA727070474FF068
:10586000FF0C4CF4E06C1CEA11531CBF9CEA030CC7
:105870009445C2BFDA4201EB02517047002B0DD0B4
:10588000BCF1000F0FD0002A01F00041A4BF41F08D
:10589000E04141F07F614FF00000704701F00041AE
:1058A0004FF00000704750EA01334FF09B0C18BFD7
:1058B0004CF0806C7EF440AF70471CF4801F11D018
:1058C0001CF4E02F03D06FEACC31490070474FF051
:1058D0004050EFF3008222F0704242EA000282F36D
:1058E000008870474FF000007047FF42001400FF2F
:1058F000FF0000000001210500509E4B0002162B06
:105900001200628080000A32C30F13C300FF000040
:105910003B001747800301451800010FFF0A5A1486
:10592000641E6E287832823C8C469650A0A0509619
:10593000468C3C823278286E1E64145A0A0A5A50E9
:10594000A0146446961E6E3C8C287832828232788F
:10595000288C3C6E1E96466414A0505A0A28780A79
:105960005A50A014641E6E3C8C3282469696468233
:10597000328C3C6E1E6414A0505A0A782850A0281D
:10598000780A5A1E6E3C8C328246961464641496D1
:105990004682328C3C6E1E5A0A7828A05050A0468F
:1059A000963C8C28780A5A32821E6E146464146EF7
:1059B0001E82325A0A78288C3C9646A05046963C65
:1059C0008C50A028780A5A1E6E32821464641482A5
:1059D000326E1E5A0A7828A0508C3C964646960A8B
:1059E0005A3C8C146450A028781E6E328282326E2B
:1059F0001E7828A05064148C3C5A0A964646960A93
:105A00005A50A03C8C28781E6E3282146464148232
:105A1000326E1E78288C3CA0505A0A964600000030
:105A2000555555555555C53F7D6FEB0312D6D4BF1F
:105A30005544880E55C1C93F3B8F68B52882A4BF25
:105A400088B20175E0EF493F09F7FD0DE13D023FE6
:105A50004B2D8A1C273A03C0C88A599CE52A00406E
:105A600059018D1B6C06E6BF82922EB1C5B8B33FBB
:105A7000905A000800000020600500006C0100083A
:105A8000E45E000860050020F8080000C801000876
:105A900001328B80BF0401149BC8C2048A4204F9FE
:105AA0004802243F175680803BD37F10183C77BEB6
:105AB000403CCF7D803C5B9BA03CA6B7C03C6ED2F7
:105AC000E03CB77500FF003D3581103D918B203DD6
:105AD000AB94303D609C403D92A2503D25A7603D77
